{
  "_format": "hh-sol-artifact-1",
  "contractName": "Trustmed",
  "sourceName": "contracts/trustmed.sol",
  "abi": [
    {
      "inputs": [],
      "stateMutability": "nonpayable",
      "type": "constructor"
    },
    {
      "inputs": [
        {
          "internalType": "string",
          "name": "_code",
          "type": "string"
        },
        {
          "internalType": "address",
          "name": "_address",
          "type": "address"
        }
      ],
      "name": "addRetailerToCode",
      "outputs": [
        {
          "internalType": "uint256",
          "name": "",
          "type": "uint256"
        }
      ],
      "stateMutability": "payable",
      "type": "function"
    },
    {
      "inputs": [],
      "name": "admin",
      "outputs": [
        {
          "internalType": "address",
          "name": "",
          "type": "address"
        }
      ],
      "stateMutability": "view",
      "type": "function"
    },
    {
      "inputs": [
        {
          "internalType": "address",
          "name": "_retailerAddress",
          "type": "address"
        },
        {
          "internalType": "string",
          "name": "_name",
          "type": "string"
        },
        {
          "internalType": "string",
          "name": "_location",
          "type": "string"
        }
      ],
      "name": "createRetailer",
      "outputs": [
        {
          "internalType": "bool",
          "name": "",
          "type": "bool"
        }
      ],
      "stateMutability": "payable",
      "type": "function"
    },
    {
      "inputs": [
        {
          "internalType": "string",
          "name": "_code",
          "type": "string"
        },
        {
          "internalType": "uint256",
          "name": "_status",
          "type": "uint256"
        },
        {
          "internalType": "string",
          "name": "_brand",
          "type": "string"
        },
        {
          "internalType": "string",
          "name": "_model",
          "type": "string"
        },
        {
          "internalType": "string",
          "name": "_description",
          "type": "string"
        },
        {
          "internalType": "string",
          "name": "_manufName",
          "type": "string"
        },
        {
          "internalType": "string",
          "name": "_manufLocation",
          "type": "string"
        },
        {
          "internalType": "string",
          "name": "_manufTimestamp",
          "type": "string"
        }
      ],
      "name": "generateCode",
      "outputs": [
        {
          "internalType": "uint256",
          "name": "",
          "type": "uint256"
        }
      ],
      "stateMutability": "payable",
      "type": "function"
    },
    {
      "inputs": [
        {
          "internalType": "string",
          "name": "_code",
          "type": "string"
        }
      ],
      "name": "getDetailsNotOwner",
      "outputs": [
        {
          "internalType": "uint256",
          "name": "",
          "type": "uint256"
        },
        {
          "internalType": "string",
          "name": "",
          "type": "string"
        },
        {
          "internalType": "string",
          "name": "",
          "type": "string"
        },
        {
          "internalType": "string",
          "name": "",
          "type": "string"
        },
        {
          "internalType": "string",
          "name": "",
          "type": "string"
        },
        {
          "internalType": "string",
          "name": "",
          "type": "string"
        },
        {
          "internalType": "string",
          "name": "",
          "type": "string"
        }
      ],
      "stateMutability": "view",
      "type": "function"
    },
    {
      "inputs": [
        {
          "internalType": "string",
          "name": "_code",
          "type": "string"
        }
      ],
      "name": "getDetailsOwner",
      "outputs": [
        {
          "internalType": "address",
          "name": "",
          "type": "address"
        },
        {
          "internalType": "string",
          "name": "",
          "type": "string"
        },
        {
          "internalType": "string",
          "name": "",
          "type": "string"
        }
      ],
      "stateMutability": "view",
      "type": "function"
    },
    {
      "inputs": [
        {
          "internalType": "address",
          "name": "_address",
          "type": "address"
        }
      ],
      "name": "getRetailerDetails",
      "outputs": [
        {
          "internalType": "string",
          "name": "",
          "type": "string"
        },
        {
          "internalType": "string",
          "name": "",
          "type": "string"
        }
      ],
      "stateMutability": "view",
      "type": "function"
    },
    {
      "inputs": [
        {
          "internalType": "string",
          "name": "_code",
          "type": "string"
        }
      ],
      "name": "initialOwner",
      "outputs": [
        {
          "internalType": "bool",
          "name": "",
          "type": "bool"
        }
      ],
      "stateMutability": "payable",
      "type": "function"
    },
    {
      "inputs": [],
      "name": "isRetailer",
      "outputs": [
        {
          "internalType": "bool",
          "name": "",
          "type": "bool"
        }
      ],
      "stateMutability": "view",
      "type": "function"
    },
    {
      "inputs": [
        {
          "internalType": "string",
          "name": "_code",
          "type": "string"
        },
        {
          "internalType": "address",
          "name": "_newOwner",
          "type": "address"
        }
      ],
      "name": "transferOwnership",
      "outputs": [
        {
          "internalType": "uint256",
          "name": "",
          "type": "uint256"
        }
      ],
      "stateMutability": "payable",
      "type": "function"
    }
  ],
  "bytecode": "0x608060405234801561001057600080fd5b50336000806101000a81548173ffffffffffffffffffffffffffffffffffffffff021916908373ffffffffffffffffffffffffffffffffffffffff160217905550611af4806100606000396000f3fe6080604052600436106100915760003560e01c8063c0e793c211610059578063c0e793c21461018f578063ce029668146101bf578063d4a8f729146101ef578063d90b40421461022e578063f851a4401461027157610091565b8063121a613d146100965780631b89a8db146100c6578063477ba645146100f657806356dae6c61461012157806363ba831514610151575b600080fd5b6100b060048036038101906100ab91906114f5565b61029c565b6040516100bd9190611803565b60405180910390f35b6100e060048036038101906100db9190611549565b61038a565b6040516100ed9190611803565b60405180910390f35b34801561010257600080fd5b5061010b610566565b60405161011891906117b1565b60405180910390f35b61013b600480360381019061013691906114b4565b61060f565b60405161014891906117b1565b60405180910390f35b34801561015d57600080fd5b506101786004803603810190610173919061140c565b61067a565b6040516101869291906117cc565b60405180910390f35b6101a960048036038101906101a491906114f5565b610822565b6040516101b69190611803565b60405180910390f35b6101d960048036038101906101d49190611435565b61090d565b6040516101e691906117b1565b60405180910390f35b3480156101fb57600080fd5b50610216600480360381019061021191906114b4565b610ac1565b6040516102259392919061176c565b60405180910390f35b34801561023a57600080fd5b50610255600480360381019061025091906114b4565b610d33565b604051610268979695949392919061181e565b60405180910390f35b34801561027d57600080fd5b50610286611187565b6040516102939190611751565b60405180910390f35b6000816001846040516102af919061173a565b908152602001604051809103902060070160006101000a81548173ffffffffffffffffffffffffffffffffffffffff021916908373ffffffffffffffffffffffffffffffffffffffff16021790555060018360405161030e919061173a565b9081526020016040518091039020600801829080600181540180825580915050600190039060005260206000200160009091909190916101000a81548173ffffffffffffffffffffffffffffffffffffffff021916908373ffffffffffffffffffffffffffffffffffffffff1602179055506001905092915050565b60006103946111ab565b88816000018181525050878160200181905250868160400181905250858160600181905250848160800181905250838160a00181905250828160c00181905250338160e0019073ffffffffffffffffffffffffffffffffffffffff16908173ffffffffffffffffffffffffffffffffffffffff16815250508060018b60405161041d919061173a565b908152602001604051809103902060008201518160000155602082015181600101908051906020019061045192919061120d565b50604082015181600201908051906020019061046e92919061120d565b50606082015181600301908051906020019061048b92919061120d565b5060808201518160040190805190602001906104a892919061120d565b5060a08201518160050190805190602001906104c592919061120d565b5060c08201518160060190805190602001906104e292919061120d565b5060e08201518160070160006101000a81548173ffffffffffffffffffffffffffffffffffffffff021916908373ffffffffffffffffffffffffffffffffffffffff160217905550610100820151816008019080519060200190610547929190611293565b509050506105548a61060f565b50600191505098975050505050505050565b60003373ffffffffffffffffffffffffffffffffffffffff16600260003373ffffffffffffffffffffffffffffffffffffffff1673ffffffffffffffffffffffffffffffffffffffff16815260200190815260200160002060000160009054906101000a900473ffffffffffffffffffffffffffffffffffffffff1673ffffffffffffffffffffffffffffffffffffffff161415610607576001905061060c565b600090505b90565b600033600183604051610622919061173a565b908152602001604051809103902060070160006101000a81548173ffffffffffffffffffffffffffffffffffffffff021916908373ffffffffffffffffffffffffffffffffffffffff16021790555060019050919050565b606080600260008473ffffffffffffffffffffffffffffffffffffffff1673ffffffffffffffffffffffffffffffffffffffff168152602001908152602001600020600101600260008573ffffffffffffffffffffffffffffffffffffffff1673ffffffffffffffffffffffffffffffffffffffff16815260200190815260200160002060020181805461070d906119be565b80601f0160208091040260200160405190810160405280929190818152602001828054610739906119be565b80156107865780601f1061075b57610100808354040283529160200191610786565b820191906000526020600020905b81548152906001019060200180831161076957829003601f168201915b50505050509150808054610799906119be565b80601f01602080910402602001604051908101604052809291908181526020018280546107c5906119be565b80156108125780601f106107e757610100808354040283529160200191610812565b820191906000526020600020905b8154815290600101906020018083116107f557829003601f168201915b5050505050905091509150915091565b60003373ffffffffffffffffffffffffffffffffffffffff1660018460405161084b919061173a565b908152602001604051809103902060070160009054906101000a900473ffffffffffffffffffffffffffffffffffffffff1673ffffffffffffffffffffffffffffffffffffffff16141561090257816001846040516108aa919061173a565b908152602001604051809103902060070160006101000a81548173ffffffffffffffffffffffffffffffffffffffff021916908373ffffffffffffffffffffffffffffffffffffffff16021790555060019050610907565b600090505b92915050565b6000600260008573ffffffffffffffffffffffffffffffffffffffff1673ffffffffffffffffffffffffffffffffffffffff16815260200190815260200160002060030160009054906101000a900460ff161561096d5760009050610aba565b61097561131d565b84816000019073ffffffffffffffffffffffffffffffffffffffff16908173ffffffffffffffffffffffffffffffffffffffff1681525050838160200181905250828160400181905250600181606001901515908115158152505080600260008773ffffffffffffffffffffffffffffffffffffffff1673ffffffffffffffffffffffffffffffffffffffff16815260200190815260200160002060008201518160000160006101000a81548173ffffffffffffffffffffffffffffffffffffffff021916908373ffffffffffffffffffffffffffffffffffffffff1602179055506020820151816001019080519060200190610a7392919061120d565b506040820151816002019080519060200190610a9092919061120d565b5060608201518160030160006101000a81548160ff02191690831515021790555090505060019150505b9392505050565b6000606080600184604051610ad6919061173a565b908152602001604051809103902060070160009054906101000a900473ffffffffffffffffffffffffffffffffffffffff1660026000600187604051610b1c919061173a565b908152602001604051809103902060070160009054906101000a900473ffffffffffffffffffffffffffffffffffffffff1673ffffffffffffffffffffffffffffffffffffffff1673ffffffffffffffffffffffffffffffffffffffff16815260200190815260200160002060010160026000600188604051610b9f919061173a565b908152602001604051809103902060070160009054906101000a900473ffffffffffffffffffffffffffffffffffffffff1673ffffffffffffffffffffffffffffffffffffffff1673ffffffffffffffffffffffffffffffffffffffff168152602001908152602001600020600201818054610c1a906119be565b80601f0160208091040260200160405190810160405280929190818152602001828054610c46906119be565b8015610c935780601f10610c6857610100808354040283529160200191610c93565b820191906000526020600020905b815481529060010190602001808311610c7657829003601f168201915b50505050509150808054610ca6906119be565b80601f0160208091040260200160405190810160405280929190818152602001828054610cd2906119be565b8015610d1f5780601f10610cf457610100808354040283529160200191610d1f565b820191906000526020600020905b815481529060010190602001808311610d0257829003601f168201915b505050505090509250925092509193909250565b6000606080606080606080600188604051610d4e919061173a565b908152602001604051809103902060000154600189604051610d70919061173a565b908152602001604051809103902060010160018a604051610d91919061173a565b908152602001604051809103902060020160018b604051610db2919061173a565b908152602001604051809103902060030160018c604051610dd3919061173a565b908152602001604051809103902060040160018d604051610df4919061173a565b908152602001604051809103902060050160018e604051610e15919061173a565b9081526020016040518091039020600601858054610e32906119be565b80601f0160208091040260200160405190810160405280929190818152602001828054610e5e906119be565b8015610eab5780601f10610e8057610100808354040283529160200191610eab565b820191906000526020600020905b815481529060010190602001808311610e8e57829003601f168201915b50505050509550848054610ebe906119be565b80601f0160208091040260200160405190810160405280929190818152602001828054610eea906119be565b8015610f375780601f10610f0c57610100808354040283529160200191610f37565b820191906000526020600020905b815481529060010190602001808311610f1a57829003601f168201915b50505050509450838054610f4a906119be565b80601f0160208091040260200160405190810160405280929190818152602001828054610f76906119be565b8015610fc35780601f10610f9857610100808354040283529160200191610fc3565b820191906000526020600020905b815481529060010190602001808311610fa657829003601f168201915b50505050509350828054610fd6906119be565b80601f0160208091040260200160405190810160405280929190818152602001828054611002906119be565b801561104f5780601f106110245761010080835404028352916020019161104f565b820191906000526020600020905b81548152906001019060200180831161103257829003601f168201915b50505050509250818054611062906119be565b80601f016020809104026020016040519081016040528092919081815260200182805461108e906119be565b80156110db5780601f106110b0576101008083540402835291602001916110db565b820191906000526020600020905b8154815290600101906020018083116110be57829003601f168201915b505050505091508080546110ee906119be565b80601f016020809104026020016040519081016040528092919081815260200182805461111a906119be565b80156111675780601f1061113c57610100808354040283529160200191611167565b820191906000526020600020905b81548152906001019060200180831161114a57829003601f168201915b505050505090509650965096509650965096509650919395979092949650565b60008054906101000a900473ffffffffffffffffffffffffffffffffffffffff1681565b60405180610120016040528060008152602001606081526020016060815260200160608152602001606081526020016060815260200160608152602001600073ffffffffffffffffffffffffffffffffffffffff168152602001606081525090565b828054611219906119be565b90600052602060002090601f01602090048101928261123b5760008555611282565b82601f1061125457805160ff1916838001178555611282565b82800160010185558215611282579182015b82811115611281578251825591602001919060010190611266565b5b50905061128f919061135d565b5090565b82805482825590600052602060002090810192821561130c579160200282015b8281111561130b5782518260006101000a81548173ffffffffffffffffffffffffffffffffffffffff021916908373ffffffffffffffffffffffffffffffffffffffff160217905550916020019190600101906112b3565b5b509050611319919061135d565b5090565b6040518060800160405280600073ffffffffffffffffffffffffffffffffffffffff16815260200160608152602001606081526020016000151581525090565b5b8082111561137657600081600090555060010161135e565b5090565b600061138d611388846118dc565b6118b7565b9050828152602081018484840111156113a557600080fd5b6113b084828561197c565b509392505050565b6000813590506113c781611a90565b92915050565b600082601f8301126113de57600080fd5b81356113ee84826020860161137a565b91505092915050565b60008135905061140681611aa7565b92915050565b60006020828403121561141e57600080fd5b600061142c848285016113b8565b91505092915050565b60008060006060848603121561144a57600080fd5b6000611458868287016113b8565b935050602084013567ffffffffffffffff81111561147557600080fd5b611481868287016113cd565b925050604084013567ffffffffffffffff81111561149e57600080fd5b6114aa868287016113cd565b9150509250925092565b6000602082840312156114c657600080fd5b600082013567ffffffffffffffff8111156114e057600080fd5b6114ec848285016113cd565b91505092915050565b6000806040838503121561150857600080fd5b600083013567ffffffffffffffff81111561152257600080fd5b61152e858286016113cd565b925050602061153f858286016113b8565b9150509250929050565b600080600080600080600080610100898b03121561156657600080fd5b600089013567ffffffffffffffff81111561158057600080fd5b61158c8b828c016113cd565b985050602061159d8b828c016113f7565b975050604089013567ffffffffffffffff8111156115ba57600080fd5b6115c68b828c016113cd565b965050606089013567ffffffffffffffff8111156115e357600080fd5b6115ef8b828c016113cd565b955050608089013567ffffffffffffffff81111561160c57600080fd5b6116188b828c016113cd565b94505060a089013567ffffffffffffffff81111561163557600080fd5b6116418b828c016113cd565b93505060c089013567ffffffffffffffff81111561165e57600080fd5b61166a8b828c016113cd565b92505060e089013567ffffffffffffffff81111561168757600080fd5b6116938b828c016113cd565b9150509295985092959890939650565b6116ac81611934565b82525050565b6116bb81611946565b82525050565b60006116cc8261190d565b6116d68185611918565b93506116e681856020860161198b565b6116ef81611a7f565b840191505092915050565b60006117058261190d565b61170f8185611929565b935061171f81856020860161198b565b80840191505092915050565b61173481611972565b82525050565b600061174682846116fa565b915081905092915050565b600060208201905061176660008301846116a3565b92915050565b600060608201905061178160008301866116a3565b818103602083015261179381856116c1565b905081810360408301526117a781846116c1565b9050949350505050565b60006020820190506117c660008301846116b2565b92915050565b600060408201905081810360008301526117e681856116c1565b905081810360208301526117fa81846116c1565b90509392505050565b6000602082019050611818600083018461172b565b92915050565b600060e082019050611833600083018a61172b565b818103602083015261184581896116c1565b9050818103604083015261185981886116c1565b9050818103606083015261186d81876116c1565b9050818103608083015261188181866116c1565b905081810360a083015261189581856116c1565b905081810360c08301526118a981846116c1565b905098975050505050505050565b60006118c16118d2565b90506118cd82826119f0565b919050565b6000604051905090565b600067ffffffffffffffff8211156118f7576118f6611a50565b5b61190082611a7f565b9050602081019050919050565b600081519050919050565b600082825260208201905092915050565b600081905092915050565b600061193f82611952565b9050919050565b60008115159050919050565b600073ffffffffffffffffffffffffffffffffffffffff82169050919050565b6000819050919050565b82818337600083830152505050565b60005b838110156119a957808201518184015260208101905061198e565b838111156119b8576000848401525b50505050565b600060028204905060018216806119d657607f821691505b602082108114156119ea576119e9611a21565b5b50919050565b6119f982611a7f565b810181811067ffffffffffffffff82111715611a1857611a17611a50565b5b80604052505050565b7f4e487b7100000000000000000000000000000000000000000000000000000000600052602260045260246000fd5b7f4e487b7100000000000000000000000000000000000000000000000000000000600052604160045260246000fd5b6000601f19601f8301169050919050565b611a9981611934565b8114611aa457600080fd5b50565b611ab081611972565b8114611abb57600080fd5b5056fea2646970667358221220fcb9dbdadb7ae88a13ae1e39ff5edc2525f1ec5b2aa9161d301979251375fda164736f6c63430008040033",
  "linkReferences": {},
  "deployedLinkReferences": {}
}