{
  "_format": "hh-sol-artifact-1",
  "contractName": "Trustmed",
  "sourceName": "contracts/trustmed.sol",
  "abi": [
    {
      "inputs": [],
      "stateMutability": "nonpayable",
      "type": "constructor"
    },
    {
      "inputs": [
        {
          "internalType": "string",
          "name": "_code",
          "type": "string"
        },
        {
          "internalType": "address",
          "name": "_address",
          "type": "address"
        }
      ],
      "name": "addRetailerToCode",
      "outputs": [
        {
          "internalType": "uint256",
          "name": "",
          "type": "uint256"
        }
      ],
      "stateMutability": "payable",
      "type": "function"
    },
    {
      "inputs": [
        {
          "internalType": "address",
          "name": "_manufacturerAddress",
          "type": "address"
        },
        {
          "internalType": "string",
          "name": "_name",
          "type": "string"
        },
        {
          "internalType": "string",
          "name": "_location",
          "type": "string"
        }
      ],
      "name": "createManufacturer",
      "outputs": [
        {
          "internalType": "bool",
          "name": "",
          "type": "bool"
        }
      ],
      "stateMutability": "payable",
      "type": "function"
    },
    {
      "inputs": [
        {
          "internalType": "address",
          "name": "_retailerAddress",
          "type": "address"
        },
        {
          "internalType": "string",
          "name": "_name",
          "type": "string"
        },
        {
          "internalType": "string",
          "name": "_location",
          "type": "string"
        }
      ],
      "name": "createRetailer",
      "outputs": [
        {
          "internalType": "bool",
          "name": "",
          "type": "bool"
        }
      ],
      "stateMutability": "payable",
      "type": "function"
    },
    {
      "inputs": [
        {
          "internalType": "string",
          "name": "_code",
          "type": "string"
        },
        {
          "internalType": "uint256",
          "name": "_status",
          "type": "uint256"
        },
        {
          "internalType": "string",
          "name": "_brand",
          "type": "string"
        },
        {
          "internalType": "string",
          "name": "_model",
          "type": "string"
        },
        {
          "internalType": "string",
          "name": "_description",
          "type": "string"
        },
        {
          "internalType": "string",
          "name": "_manufName",
          "type": "string"
        },
        {
          "internalType": "string",
          "name": "_manufLocation",
          "type": "string"
        },
        {
          "internalType": "string",
          "name": "_manufTimestamp",
          "type": "string"
        }
      ],
      "name": "generateCode",
      "outputs": [
        {
          "internalType": "uint256",
          "name": "",
          "type": "uint256"
        }
      ],
      "stateMutability": "payable",
      "type": "function"
    },
    {
      "inputs": [
        {
          "internalType": "string",
          "name": "_code",
          "type": "string"
        }
      ],
      "name": "getDetailsNotOwner",
      "outputs": [
        {
          "internalType": "uint256",
          "name": "",
          "type": "uint256"
        },
        {
          "internalType": "string",
          "name": "",
          "type": "string"
        },
        {
          "internalType": "string",
          "name": "",
          "type": "string"
        },
        {
          "internalType": "string",
          "name": "",
          "type": "string"
        },
        {
          "internalType": "string",
          "name": "",
          "type": "string"
        },
        {
          "internalType": "string",
          "name": "",
          "type": "string"
        },
        {
          "internalType": "string",
          "name": "",
          "type": "string"
        }
      ],
      "stateMutability": "view",
      "type": "function"
    },
    {
      "inputs": [
        {
          "internalType": "string",
          "name": "_code",
          "type": "string"
        }
      ],
      "name": "getDetailsOwner",
      "outputs": [
        {
          "internalType": "address",
          "name": "",
          "type": "address"
        },
        {
          "internalType": "string",
          "name": "",
          "type": "string"
        },
        {
          "internalType": "string",
          "name": "",
          "type": "string"
        }
      ],
      "stateMutability": "view",
      "type": "function"
    },
    {
      "inputs": [
        {
          "internalType": "address",
          "name": "_address",
          "type": "address"
        }
      ],
      "name": "getRetailerDetails",
      "outputs": [
        {
          "internalType": "string",
          "name": "",
          "type": "string"
        },
        {
          "internalType": "string",
          "name": "",
          "type": "string"
        }
      ],
      "stateMutability": "view",
      "type": "function"
    },
    {
      "inputs": [],
      "name": "getSuperAdmin",
      "outputs": [
        {
          "internalType": "address",
          "name": "",
          "type": "address"
        }
      ],
      "stateMutability": "view",
      "type": "function"
    },
    {
      "inputs": [
        {
          "internalType": "string",
          "name": "_code",
          "type": "string"
        }
      ],
      "name": "initialOwner",
      "outputs": [
        {
          "internalType": "bool",
          "name": "",
          "type": "bool"
        }
      ],
      "stateMutability": "payable",
      "type": "function"
    },
    {
      "inputs": [],
      "name": "isManufacturer",
      "outputs": [
        {
          "internalType": "bool",
          "name": "",
          "type": "bool"
        }
      ],
      "stateMutability": "view",
      "type": "function"
    },
    {
      "inputs": [],
      "name": "isRetailer",
      "outputs": [
        {
          "internalType": "bool",
          "name": "",
          "type": "bool"
        }
      ],
      "stateMutability": "view",
      "type": "function"
    },
    {
      "inputs": [],
      "name": "isSuperAdmin",
      "outputs": [
        {
          "internalType": "bool",
          "name": "",
          "type": "bool"
        }
      ],
      "stateMutability": "view",
      "type": "function"
    },
    {
      "inputs": [
        {
          "internalType": "string",
          "name": "_code",
          "type": "string"
        },
        {
          "internalType": "address",
          "name": "_newOwner",
          "type": "address"
        }
      ],
      "name": "transferOwnership",
      "outputs": [
        {
          "internalType": "uint256",
          "name": "",
          "type": "uint256"
        }
      ],
      "stateMutability": "payable",
      "type": "function"
    }
  ],
  "bytecode": "0x608060405234801561001057600080fd5b50336000806101000a81548173ffffffffffffffffffffffffffffffffffffffff021916908373ffffffffffffffffffffffffffffffffffffffff160217905550611b8b806100606000396000f3fe6080604052600436106100c25760003560e01c80638204c3261161007f578063c3c7fd5a11610059578063c3c7fd5a14610271578063ce029668146102a1578063d4a8f729146102d1578063d90b404214610310576100c2565b80638204c326146101eb57806393583b8914610216578063c0e793c214610241576100c2565b8063121a613d146100c75780631b89a8db146100f7578063477ba6451461012757806356dae6c6146101525780635faa83fc1461018257806363ba8315146101ad575b600080fd5b6100e160048036038101906100dc919061158c565b610353565b6040516100ee919061189a565b60405180910390f35b610111600480360381019061010c91906115e0565b610441565b60405161011e919061189a565b60405180910390f35b34801561013357600080fd5b5061013c610561565b6040516101499190611848565b60405180910390f35b61016c6004803603810190610167919061154b565b61060a565b6040516101799190611848565b60405180910390f35b34801561018e57600080fd5b50610197610675565b6040516101a49190611848565b60405180910390f35b3480156101b957600080fd5b506101d460048036038101906101cf91906114a3565b6106dc565b6040516101e2929190611863565b60405180910390f35b3480156101f757600080fd5b50610200610884565b60405161020d91906117e8565b60405180910390f35b34801561022257600080fd5b5061022b6108ad565b6040516102389190611848565b60405180910390f35b61025b6004803603810190610256919061158c565b610956565b604051610268919061189a565b60405180910390f35b61028b600480360381019061028691906114cc565b610a41565b6040516102989190611848565b60405180910390f35b6102bb60048036038101906102b691906114cc565b610b66565b6040516102c89190611848565b60405180910390f35b3480156102dd57600080fd5b506102f860048036038101906102f3919061154b565b610ca8565b60405161030793929190611803565b60405180910390f35b34801561031c57600080fd5b506103376004803603810190610332919061154b565b610f1a565b60405161034a97969594939291906118b5565b60405180910390f35b60008160018460405161036691906117d1565b908152602001604051809103902060070160006101000a81548173ffffffffffffffffffffffffffffffffffffffff021916908373ffffffffffffffffffffffffffffffffffffffff1602179055506001836040516103c591906117d1565b9081526020016040518091039020600801829080600181540180825580915050600190039060005260206000200160009091909190916101000a81548173ffffffffffffffffffffffffffffffffffffffff021916908373ffffffffffffffffffffffffffffffffffffffff1602179055506001905092915050565b60008060018a60405161045491906117d1565b908152602001604051809103902090508781600101908051906020019061047c92919061136e565b508881600001819055508681600201908051906020019061049e92919061136e565b50858160030190805190602001906104b792919061136e565b50848160040190805190602001906104d092919061136e565b50838160050190805190602001906104e992919061136e565b508281600601908051906020019061050292919061136e565b50338160070160006101000a81548173ffffffffffffffffffffffffffffffffffffffff021916908373ffffffffffffffffffffffffffffffffffffffff16021790555061054f8a61060a565b50600191505098975050505050505050565b60003373ffffffffffffffffffffffffffffffffffffffff16600260003373ffffffffffffffffffffffffffffffffffffffff1673ffffffffffffffffffffffffffffffffffffffff16815260200190815260200160002060000160009054906101000a900473ffffffffffffffffffffffffffffffffffffffff1673ffffffffffffffffffffffffffffffffffffffff1614156106025760019050610607565b600090505b90565b60003360018360405161061d91906117d1565b908152602001604051809103902060070160006101000a81548173ffffffffffffffffffffffffffffffffffffffff021916908373ffffffffffffffffffffffffffffffffffffffff16021790555060019050919050565b60003373ffffffffffffffffffffffffffffffffffffffff1660008054906101000a900473ffffffffffffffffffffffffffffffffffffffff1673ffffffffffffffffffffffffffffffffffffffff1614156106d457600190506106d9565b600090505b90565b606080600260008473ffffffffffffffffffffffffffffffffffffffff1673ffffffffffffffffffffffffffffffffffffffff168152602001908152602001600020600101600260008573ffffffffffffffffffffffffffffffffffffffff1673ffffffffffffffffffffffffffffffffffffffff16815260200190815260200160002060020181805461076f90611a55565b80601f016020809104026020016040519081016040528092919081815260200182805461079b90611a55565b80156107e85780601f106107bd576101008083540402835291602001916107e8565b820191906000526020600020905b8154815290600101906020018083116107cb57829003601f168201915b505050505091508080546107fb90611a55565b80601f016020809104026020016040519081016040528092919081815260200182805461082790611a55565b80156108745780601f1061084957610100808354040283529160200191610874565b820191906000526020600020905b81548152906001019060200180831161085757829003601f168201915b5050505050905091509150915091565b60008060009054906101000a900473ffffffffffffffffffffffffffffffffffffffff16905090565b60003373ffffffffffffffffffffffffffffffffffffffff16600360003373ffffffffffffffffffffffffffffffffffffffff1673ffffffffffffffffffffffffffffffffffffffff16815260200190815260200160002060000160009054906101000a900473ffffffffffffffffffffffffffffffffffffffff1673ffffffffffffffffffffffffffffffffffffffff16141561094e5760019050610953565b600090505b90565b60003373ffffffffffffffffffffffffffffffffffffffff1660018460405161097f91906117d1565b908152602001604051809103902060070160009054906101000a900473ffffffffffffffffffffffffffffffffffffffff1673ffffffffffffffffffffffffffffffffffffffff161415610a3657816001846040516109de91906117d1565b908152602001604051809103902060070160006101000a81548173ffffffffffffffffffffffffffffffffffffffff021916908373ffffffffffffffffffffffffffffffffffffffff16021790555060019050610a3b565b600090505b92915050565b6000600360008573ffffffffffffffffffffffffffffffffffffffff1673ffffffffffffffffffffffffffffffffffffffff16815260200190815260200160002060030160009054906101000a900460ff1615610aa15760009050610b5f565b6000600360008673ffffffffffffffffffffffffffffffffffffffff1673ffffffffffffffffffffffffffffffffffffffff1681526020019081526020016000209050848160000160006101000a81548173ffffffffffffffffffffffffffffffffffffffff021916908373ffffffffffffffffffffffffffffffffffffffff16021790555083816001019080519060200190610b3f92919061136e565b5082816002019080519060200190610b5892919061136e565b5060019150505b9392505050565b6000600260008573ffffffffffffffffffffffffffffffffffffffff1673ffffffffffffffffffffffffffffffffffffffff16815260200190815260200160002060030160009054906101000a900460ff1615610bc65760009050610ca1565b6000600260008673ffffffffffffffffffffffffffffffffffffffff1673ffffffffffffffffffffffffffffffffffffffff1681526020019081526020016000209050848160000160006101000a81548173ffffffffffffffffffffffffffffffffffffffff021916908373ffffffffffffffffffffffffffffffffffffffff16021790555083816001019080519060200190610c6492919061136e565b5082816002019080519060200190610c7d92919061136e565b5060018160030160006101000a81548160ff02191690831515021790555060019150505b9392505050565b6000606080600184604051610cbd91906117d1565b908152602001604051809103902060070160009054906101000a900473ffffffffffffffffffffffffffffffffffffffff1660026000600187604051610d0391906117d1565b908152602001604051809103902060070160009054906101000a900473ffffffffffffffffffffffffffffffffffffffff1673ffffffffffffffffffffffffffffffffffffffff1673ffffffffffffffffffffffffffffffffffffffff16815260200190815260200160002060010160026000600188604051610d8691906117d1565b908152602001604051809103902060070160009054906101000a900473ffffffffffffffffffffffffffffffffffffffff1673ffffffffffffffffffffffffffffffffffffffff1673ffffffffffffffffffffffffffffffffffffffff168152602001908152602001600020600201818054610e0190611a55565b80601f0160208091040260200160405190810160405280929190818152602001828054610e2d90611a55565b8015610e7a5780601f10610e4f57610100808354040283529160200191610e7a565b820191906000526020600020905b815481529060010190602001808311610e5d57829003601f168201915b50505050509150808054610e8d90611a55565b80601f0160208091040260200160405190810160405280929190818152602001828054610eb990611a55565b8015610f065780601f10610edb57610100808354040283529160200191610f06565b820191906000526020600020905b815481529060010190602001808311610ee957829003601f168201915b505050505090509250925092509193909250565b6000606080606080606080600188604051610f3591906117d1565b908152602001604051809103902060000154600189604051610f5791906117d1565b908152602001604051809103902060010160018a604051610f7891906117d1565b908152602001604051809103902060020160018b604051610f9991906117d1565b908152602001604051809103902060030160018c604051610fba91906117d1565b908152602001604051809103902060040160018d604051610fdb91906117d1565b908152602001604051809103902060050160018e604051610ffc91906117d1565b908152602001604051809103902060060185805461101990611a55565b80601f016020809104026020016040519081016040528092919081815260200182805461104590611a55565b80156110925780601f1061106757610100808354040283529160200191611092565b820191906000526020600020905b81548152906001019060200180831161107557829003601f168201915b505050505095508480546110a590611a55565b80601f01602080910402602001604051908101604052809291908181526020018280546110d190611a55565b801561111e5780601f106110f35761010080835404028352916020019161111e565b820191906000526020600020905b81548152906001019060200180831161110157829003601f168201915b5050505050945083805461113190611a55565b80601f016020809104026020016040519081016040528092919081815260200182805461115d90611a55565b80156111aa5780601f1061117f576101008083540402835291602001916111aa565b820191906000526020600020905b81548152906001019060200180831161118d57829003601f168201915b505050505093508280546111bd90611a55565b80601f01602080910402602001604051908101604052809291908181526020018280546111e990611a55565b80156112365780601f1061120b57610100808354040283529160200191611236565b820191906000526020600020905b81548152906001019060200180831161121957829003601f168201915b5050505050925081805461124990611a55565b80601f016020809104026020016040519081016040528092919081815260200182805461127590611a55565b80156112c25780601f10611297576101008083540402835291602001916112c2565b820191906000526020600020905b8154815290600101906020018083116112a557829003601f168201915b505050505091508080546112d590611a55565b80601f016020809104026020016040519081016040528092919081815260200182805461130190611a55565b801561134e5780601f106113235761010080835404028352916020019161134e565b820191906000526020600020905b81548152906001019060200180831161133157829003601f168201915b505050505090509650965096509650965096509650919395979092949650565b82805461137a90611a55565b90600052602060002090601f01602090048101928261139c57600085556113e3565b82601f106113b557805160ff19168380011785556113e3565b828001600101855582156113e3579182015b828111156113e25782518255916020019190600101906113c7565b5b5090506113f091906113f4565b5090565b5b8082111561140d5760008160009055506001016113f5565b5090565b600061142461141f84611973565b61194e565b90508281526020810184848401111561143c57600080fd5b611447848285611a13565b509392505050565b60008135905061145e81611b27565b92915050565b600082601f83011261147557600080fd5b8135611485848260208601611411565b91505092915050565b60008135905061149d81611b3e565b92915050565b6000602082840312156114b557600080fd5b60006114c38482850161144f565b91505092915050565b6000806000606084860312156114e157600080fd5b60006114ef8682870161144f565b935050602084013567ffffffffffffffff81111561150c57600080fd5b61151886828701611464565b925050604084013567ffffffffffffffff81111561153557600080fd5b61154186828701611464565b9150509250925092565b60006020828403121561155d57600080fd5b600082013567ffffffffffffffff81111561157757600080fd5b61158384828501611464565b91505092915050565b6000806040838503121561159f57600080fd5b600083013567ffffffffffffffff8111156115b957600080fd5b6115c585828601611464565b92505060206115d68582860161144f565b9150509250929050565b600080600080600080600080610100898b0312156115fd57600080fd5b600089013567ffffffffffffffff81111561161757600080fd5b6116238b828c01611464565b98505060206116348b828c0161148e565b975050604089013567ffffffffffffffff81111561165157600080fd5b61165d8b828c01611464565b965050606089013567ffffffffffffffff81111561167a57600080fd5b6116868b828c01611464565b955050608089013567ffffffffffffffff8111156116a357600080fd5b6116af8b828c01611464565b94505060a089013567ffffffffffffffff8111156116cc57600080fd5b6116d88b828c01611464565b93505060c089013567ffffffffffffffff8111156116f557600080fd5b6117018b828c01611464565b92505060e089013567ffffffffffffffff81111561171e57600080fd5b61172a8b828c01611464565b9150509295985092959890939650565b611743816119cb565b82525050565b611752816119dd565b82525050565b6000611763826119a4565b61176d81856119af565b935061177d818560208601611a22565b61178681611b16565b840191505092915050565b600061179c826119a4565b6117a681856119c0565b93506117b6818560208601611a22565b80840191505092915050565b6117cb81611a09565b82525050565b60006117dd8284611791565b915081905092915050565b60006020820190506117fd600083018461173a565b92915050565b6000606082019050611818600083018661173a565b818103602083015261182a8185611758565b9050818103604083015261183e8184611758565b9050949350505050565b600060208201905061185d6000830184611749565b92915050565b6000604082019050818103600083015261187d8185611758565b905081810360208301526118918184611758565b90509392505050565b60006020820190506118af60008301846117c2565b92915050565b600060e0820190506118ca600083018a6117c2565b81810360208301526118dc8189611758565b905081810360408301526118f08188611758565b905081810360608301526119048187611758565b905081810360808301526119188186611758565b905081810360a083015261192c8185611758565b905081810360c08301526119408184611758565b905098975050505050505050565b6000611958611969565b90506119648282611a87565b919050565b6000604051905090565b600067ffffffffffffffff82111561198e5761198d611ae7565b5b61199782611b16565b9050602081019050919050565b600081519050919050565b600082825260208201905092915050565b600081905092915050565b60006119d6826119e9565b9050919050565b60008115159050919050565b600073ffffffffffffffffffffffffffffffffffffffff82169050919050565b6000819050919050565b82818337600083830152505050565b60005b83811015611a40578082015181840152602081019050611a25565b83811115611a4f576000848401525b50505050565b60006002820490506001821680611a6d57607f821691505b60208210811415611a8157611a80611ab8565b5b50919050565b611a9082611b16565b810181811067ffffffffffffffff82111715611aaf57611aae611ae7565b5b80604052505050565b7f4e487b7100000000000000000000000000000000000000000000000000000000600052602260045260246000fd5b7f4e487b7100000000000000000000000000000000000000000000000000000000600052604160045260246000fd5b6000601f19601f8301169050919050565b611b30816119cb565b8114611b3b57600080fd5b50565b611b4781611a09565b8114611b5257600080fd5b5056fea264697066735822122094d9221aaec80a92f9a7ca47faaa396d8ea0e5ca396579a30d69dfffaf1c0bdb64736f6c63430008040033",
  "linkReferences": {},
  "deployedLinkReferences": {}
}