{
  "_format": "hh-sol-artifact-1",
  "contractName": "Trustmed",
  "sourceName": "contracts/trustmed.sol",
  "abi": [
    {
      "inputs": [],
      "stateMutability": "nonpayable",
      "type": "constructor"
    },
    {
      "inputs": [
        {
          "internalType": "string",
          "name": "_code",
          "type": "string"
        },
        {
          "internalType": "address",
          "name": "_address",
          "type": "address"
        }
      ],
      "name": "addRetailerToCode",
      "outputs": [
        {
          "internalType": "uint256",
          "name": "",
          "type": "uint256"
        }
      ],
      "stateMutability": "payable",
      "type": "function"
    },
    {
      "inputs": [
        {
          "internalType": "address",
          "name": "_manufacturerAddress",
          "type": "address"
        },
        {
          "internalType": "string",
          "name": "_name",
          "type": "string"
        },
        {
          "internalType": "string",
          "name": "_location",
          "type": "string"
        }
      ],
      "name": "createManufacturer",
      "outputs": [
        {
          "internalType": "bool",
          "name": "",
          "type": "bool"
        }
      ],
      "stateMutability": "payable",
      "type": "function"
    },
    {
      "inputs": [
        {
          "internalType": "address",
          "name": "_retailerAddress",
          "type": "address"
        },
        {
          "internalType": "string",
          "name": "_name",
          "type": "string"
        },
        {
          "internalType": "string",
          "name": "_location",
          "type": "string"
        }
      ],
      "name": "createRetailer",
      "outputs": [
        {
          "internalType": "bool",
          "name": "",
          "type": "bool"
        }
      ],
      "stateMutability": "payable",
      "type": "function"
    },
    {
      "inputs": [
        {
          "internalType": "string",
          "name": "_code",
          "type": "string"
        },
        {
          "internalType": "uint256",
          "name": "_status",
          "type": "uint256"
        },
        {
          "internalType": "string",
          "name": "_brand",
          "type": "string"
        },
        {
          "internalType": "string",
          "name": "_model",
          "type": "string"
        },
        {
          "internalType": "string",
          "name": "_description",
          "type": "string"
        },
        {
          "internalType": "string",
          "name": "_manufName",
          "type": "string"
        },
        {
          "internalType": "string",
          "name": "_manufLocation",
          "type": "string"
        },
        {
          "internalType": "string",
          "name": "_manufTimestamp",
          "type": "string"
        }
      ],
      "name": "generateCode",
      "outputs": [
        {
          "internalType": "uint256",
          "name": "",
          "type": "uint256"
        }
      ],
      "stateMutability": "payable",
      "type": "function"
    },
    {
      "inputs": [
        {
          "internalType": "string",
          "name": "_code",
          "type": "string"
        }
      ],
      "name": "getDetailsNotOwner",
      "outputs": [
        {
          "internalType": "uint256",
          "name": "",
          "type": "uint256"
        },
        {
          "internalType": "string",
          "name": "",
          "type": "string"
        },
        {
          "internalType": "string",
          "name": "",
          "type": "string"
        },
        {
          "internalType": "string",
          "name": "",
          "type": "string"
        },
        {
          "internalType": "string",
          "name": "",
          "type": "string"
        },
        {
          "internalType": "string",
          "name": "",
          "type": "string"
        },
        {
          "internalType": "string",
          "name": "",
          "type": "string"
        }
      ],
      "stateMutability": "view",
      "type": "function"
    },
    {
      "inputs": [
        {
          "internalType": "string",
          "name": "_code",
          "type": "string"
        }
      ],
      "name": "getDetailsOwner",
      "outputs": [
        {
          "internalType": "address",
          "name": "",
          "type": "address"
        },
        {
          "internalType": "string",
          "name": "",
          "type": "string"
        },
        {
          "internalType": "string",
          "name": "",
          "type": "string"
        }
      ],
      "stateMutability": "view",
      "type": "function"
    },
    {
      "inputs": [
        {
          "internalType": "address",
          "name": "_address",
          "type": "address"
        }
      ],
      "name": "getRetailerDetails",
      "outputs": [
        {
          "internalType": "string",
          "name": "",
          "type": "string"
        },
        {
          "internalType": "string",
          "name": "",
          "type": "string"
        }
      ],
      "stateMutability": "view",
      "type": "function"
    },
    {
      "inputs": [],
      "name": "getSuperAdmin",
      "outputs": [
        {
          "internalType": "address",
          "name": "",
          "type": "address"
        }
      ],
      "stateMutability": "view",
      "type": "function"
    },
    {
      "inputs": [
        {
          "internalType": "string",
          "name": "_code",
          "type": "string"
        }
      ],
      "name": "initialOwner",
      "outputs": [
        {
          "internalType": "bool",
          "name": "",
          "type": "bool"
        }
      ],
      "stateMutability": "payable",
      "type": "function"
    },
    {
      "inputs": [],
      "name": "isManufacturer",
      "outputs": [
        {
          "internalType": "bool",
          "name": "",
          "type": "bool"
        }
      ],
      "stateMutability": "view",
      "type": "function"
    },
    {
      "inputs": [],
      "name": "isRetailer",
      "outputs": [
        {
          "internalType": "bool",
          "name": "",
          "type": "bool"
        }
      ],
      "stateMutability": "view",
      "type": "function"
    },
    {
      "inputs": [],
      "name": "isSuperAdmin",
      "outputs": [
        {
          "internalType": "bool",
          "name": "",
          "type": "bool"
        }
      ],
      "stateMutability": "view",
      "type": "function"
    },
    {
      "inputs": [
        {
          "internalType": "string",
          "name": "_code",
          "type": "string"
        },
        {
          "internalType": "address",
          "name": "_newOwner",
          "type": "address"
        }
      ],
      "name": "transferOwnership",
      "outputs": [
        {
          "internalType": "uint256",
          "name": "",
          "type": "uint256"
        }
      ],
      "stateMutability": "payable",
      "type": "function"
    }
  ],
  "bytecode": "0x608060405234801561001057600080fd5b50336000806101000a81548173ffffffffffffffffffffffffffffffffffffffff021916908373ffffffffffffffffffffffffffffffffffffffff160217905550611ea3806100606000396000f3fe6080604052600436106100c25760003560e01c80638204c3261161007f578063c3c7fd5a11610059578063c3c7fd5a14610271578063ce029668146102a1578063d4a8f729146102d1578063d90b404214610310576100c2565b80638204c326146101eb57806393583b8914610216578063c0e793c214610241576100c2565b8063121a613d146100c75780631b89a8db146100f7578063477ba6451461012757806356dae6c6146101525780635faa83fc1461018257806363ba8315146101ad575b600080fd5b6100e160048036038101906100dc91906118a4565b610353565b6040516100ee9190611bb2565b60405180910390f35b610111600480360381019061010c91906118f8565b610441565b60405161011e9190611bb2565b60405180910390f35b34801561013357600080fd5b5061013c61061d565b6040516101499190611b60565b60405180910390f35b61016c60048036038101906101679190611863565b6106c6565b6040516101799190611b60565b60405180910390f35b34801561018e57600080fd5b50610197610731565b6040516101a49190611b60565b60405180910390f35b3480156101b957600080fd5b506101d460048036038101906101cf91906117bb565b610798565b6040516101e2929190611b7b565b60405180910390f35b3480156101f757600080fd5b50610200610940565b60405161020d9190611b00565b60405180910390f35b34801561022257600080fd5b5061022b610969565b6040516102389190611b60565b60405180910390f35b61025b600480360381019061025691906118a4565b610a12565b6040516102689190611bb2565b60405180910390f35b61028b600480360381019061028691906117e4565b610afd565b6040516102989190611b60565b60405180910390f35b6102bb60048036038101906102b691906117e4565b610ca0565b6040516102c89190611b60565b60405180910390f35b3480156102dd57600080fd5b506102f860048036038101906102f39190611863565b610e54565b60405161030793929190611b1b565b60405180910390f35b34801561031c57600080fd5b5061033760048036038101906103329190611863565b6110c6565b60405161034a9796959493929190611bcd565b60405180910390f35b6000816001846040516103669190611ae9565b908152602001604051809103902060070160006101000a81548173ffffffffffffffffffffffffffffffffffffffff021916908373ffffffffffffffffffffffffffffffffffffffff1602179055506001836040516103c59190611ae9565b9081526020016040518091039020600801829080600181540180825580915050600190039060005260206000200160009091909190916101000a81548173ffffffffffffffffffffffffffffffffffffffff021916908373ffffffffffffffffffffffffffffffffffffffff1602179055506001905092915050565b600061044b61151a565b88816000018181525050878160200181905250868160400181905250858160600181905250848160800181905250838160a00181905250828160c00181905250338160e0019073ffffffffffffffffffffffffffffffffffffffff16908173ffffffffffffffffffffffffffffffffffffffff16815250508060018b6040516104d49190611ae9565b908152602001604051809103902060008201518160000155602082015181600101908051906020019061050892919061157c565b50604082015181600201908051906020019061052592919061157c565b50606082015181600301908051906020019061054292919061157c565b50608082015181600401908051906020019061055f92919061157c565b5060a082015181600501908051906020019061057c92919061157c565b5060c082015181600601908051906020019061059992919061157c565b5060e08201518160070160006101000a81548173ffffffffffffffffffffffffffffffffffffffff021916908373ffffffffffffffffffffffffffffffffffffffff1602179055506101008201518160080190805190602001906105fe929190611602565b5090505061060b8a6106c6565b50600191505098975050505050505050565b60003373ffffffffffffffffffffffffffffffffffffffff16600260003373ffffffffffffffffffffffffffffffffffffffff1673ffffffffffffffffffffffffffffffffffffffff16815260200190815260200160002060000160009054906101000a900473ffffffffffffffffffffffffffffffffffffffff1673ffffffffffffffffffffffffffffffffffffffff1614156106be57600190506106c3565b600090505b90565b6000336001836040516106d99190611ae9565b908152602001604051809103902060070160006101000a81548173ffffffffffffffffffffffffffffffffffffffff021916908373ffffffffffffffffffffffffffffffffffffffff16021790555060019050919050565b60003373ffffffffffffffffffffffffffffffffffffffff1660008054906101000a900473ffffffffffffffffffffffffffffffffffffffff1673ffffffffffffffffffffffffffffffffffffffff1614156107905760019050610795565b600090505b90565b606080600260008473ffffffffffffffffffffffffffffffffffffffff1673ffffffffffffffffffffffffffffffffffffffff168152602001908152602001600020600101600260008573ffffffffffffffffffffffffffffffffffffffff1673ffffffffffffffffffffffffffffffffffffffff16815260200190815260200160002060020181805461082b90611d6d565b80601f016020809104026020016040519081016040528092919081815260200182805461085790611d6d565b80156108a45780601f10610879576101008083540402835291602001916108a4565b820191906000526020600020905b81548152906001019060200180831161088757829003601f168201915b505050505091508080546108b790611d6d565b80601f01602080910402602001604051908101604052809291908181526020018280546108e390611d6d565b80156109305780601f1061090557610100808354040283529160200191610930565b820191906000526020600020905b81548152906001019060200180831161091357829003601f168201915b5050505050905091509150915091565b60008060009054906101000a900473ffffffffffffffffffffffffffffffffffffffff16905090565b60003373ffffffffffffffffffffffffffffffffffffffff16600360003373ffffffffffffffffffffffffffffffffffffffff1673ffffffffffffffffffffffffffffffffffffffff16815260200190815260200160002060000160009054906101000a900473ffffffffffffffffffffffffffffffffffffffff1673ffffffffffffffffffffffffffffffffffffffff161415610a0a5760019050610a0f565b600090505b90565b60003373ffffffffffffffffffffffffffffffffffffffff16600184604051610a3b9190611ae9565b908152602001604051809103902060070160009054906101000a900473ffffffffffffffffffffffffffffffffffffffff1673ffffffffffffffffffffffffffffffffffffffff161415610af25781600184604051610a9a9190611ae9565b908152602001604051809103902060070160006101000a81548173ffffffffffffffffffffffffffffffffffffffff021916908373ffffffffffffffffffffffffffffffffffffffff16021790555060019050610af7565b600090505b92915050565b6000600360008573ffffffffffffffffffffffffffffffffffffffff1673ffffffffffffffffffffffffffffffffffffffff16815260200190815260200160002060030160009054906101000a900460ff1615610b5d5760009050610c99565b610b6561168c565b84816000019073ffffffffffffffffffffffffffffffffffffffff16908173ffffffffffffffffffffffffffffffffffffffff168152505083816020018190525082816040018190525080600360008773ffffffffffffffffffffffffffffffffffffffff1673ffffffffffffffffffffffffffffffffffffffff16815260200190815260200160002060008201518160000160006101000a81548173ffffffffffffffffffffffffffffffffffffffff021916908373ffffffffffffffffffffffffffffffffffffffff1602179055506020820151816001019080519060200190610c5292919061157c565b506040820151816002019080519060200190610c6f92919061157c565b5060608201518160030160006101000a81548160ff02191690831515021790555090505060019150505b9392505050565b6000600260008573ffffffffffffffffffffffffffffffffffffffff1673ffffffffffffffffffffffffffffffffffffffff16815260200190815260200160002060030160009054906101000a900460ff1615610d005760009050610e4d565b610d086116cc565b84816000019073ffffffffffffffffffffffffffffffffffffffff16908173ffffffffffffffffffffffffffffffffffffffff1681525050838160200181905250828160400181905250600181606001901515908115158152505080600260008773ffffffffffffffffffffffffffffffffffffffff1673ffffffffffffffffffffffffffffffffffffffff16815260200190815260200160002060008201518160000160006101000a81548173ffffffffffffffffffffffffffffffffffffffff021916908373ffffffffffffffffffffffffffffffffffffffff1602179055506020820151816001019080519060200190610e0692919061157c565b506040820151816002019080519060200190610e2392919061157c565b5060608201518160030160006101000a81548160ff02191690831515021790555090505060019150505b9392505050565b6000606080600184604051610e699190611ae9565b908152602001604051809103902060070160009054906101000a900473ffffffffffffffffffffffffffffffffffffffff1660026000600187604051610eaf9190611ae9565b908152602001604051809103902060070160009054906101000a900473ffffffffffffffffffffffffffffffffffffffff1673ffffffffffffffffffffffffffffffffffffffff1673ffffffffffffffffffffffffffffffffffffffff16815260200190815260200160002060010160026000600188604051610f329190611ae9565b908152602001604051809103902060070160009054906101000a900473ffffffffffffffffffffffffffffffffffffffff1673ffffffffffffffffffffffffffffffffffffffff1673ffffffffffffffffffffffffffffffffffffffff168152602001908152602001600020600201818054610fad90611d6d565b80601f0160208091040260200160405190810160405280929190818152602001828054610fd990611d6d565b80156110265780601f10610ffb57610100808354040283529160200191611026565b820191906000526020600020905b81548152906001019060200180831161100957829003601f168201915b5050505050915080805461103990611d6d565b80601f016020809104026020016040519081016040528092919081815260200182805461106590611d6d565b80156110b25780601f10611087576101008083540402835291602001916110b2565b820191906000526020600020905b81548152906001019060200180831161109557829003601f168201915b505050505090509250925092509193909250565b60006060806060806060806001886040516110e19190611ae9565b9081526020016040518091039020600001546001896040516111039190611ae9565b908152602001604051809103902060010160018a6040516111249190611ae9565b908152602001604051809103902060020160018b6040516111459190611ae9565b908152602001604051809103902060030160018c6040516111669190611ae9565b908152602001604051809103902060040160018d6040516111879190611ae9565b908152602001604051809103902060050160018e6040516111a89190611ae9565b90815260200160405180910390206006018580546111c590611d6d565b80601f01602080910402602001604051908101604052809291908181526020018280546111f190611d6d565b801561123e5780601f106112135761010080835404028352916020019161123e565b820191906000526020600020905b81548152906001019060200180831161122157829003601f168201915b5050505050955084805461125190611d6d565b80601f016020809104026020016040519081016040528092919081815260200182805461127d90611d6d565b80156112ca5780601f1061129f576101008083540402835291602001916112ca565b820191906000526020600020905b8154815290600101906020018083116112ad57829003601f168201915b505050505094508380546112dd90611d6d565b80601f016020809104026020016040519081016040528092919081815260200182805461130990611d6d565b80156113565780601f1061132b57610100808354040283529160200191611356565b820191906000526020600020905b81548152906001019060200180831161133957829003601f168201915b5050505050935082805461136990611d6d565b80601f016020809104026020016040519081016040528092919081815260200182805461139590611d6d565b80156113e25780601f106113b7576101008083540402835291602001916113e2565b820191906000526020600020905b8154815290600101906020018083116113c557829003601f168201915b505050505092508180546113f590611d6d565b80601f016020809104026020016040519081016040528092919081815260200182805461142190611d6d565b801561146e5780601f106114435761010080835404028352916020019161146e565b820191906000526020600020905b81548152906001019060200180831161145157829003601f168201915b5050505050915080805461148190611d6d565b80601f01602080910402602001604051908101604052809291908181526020018280546114ad90611d6d565b80156114fa5780601f106114cf576101008083540402835291602001916114fa565b820191906000526020600020905b8154815290600101906020018083116114dd57829003601f168201915b505050505090509650965096509650965096509650919395979092949650565b60405180610120016040528060008152602001606081526020016060815260200160608152602001606081526020016060815260200160608152602001600073ffffffffffffffffffffffffffffffffffffffff168152602001606081525090565b82805461158890611d6d565b90600052602060002090601f0160209004810192826115aa57600085556115f1565b82601f106115c357805160ff19168380011785556115f1565b828001600101855582156115f1579182015b828111156115f05782518255916020019190600101906115d5565b5b5090506115fe919061170c565b5090565b82805482825590600052602060002090810192821561167b579160200282015b8281111561167a5782518260006101000a81548173ffffffffffffffffffffffffffffffffffffffff021916908373ffffffffffffffffffffffffffffffffffffffff16021790555091602001919060010190611622565b5b509050611688919061170c565b5090565b6040518060800160405280600073ffffffffffffffffffffffffffffffffffffffff16815260200160608152602001606081526020016000151581525090565b6040518060800160405280600073ffffffffffffffffffffffffffffffffffffffff16815260200160608152602001606081526020016000151581525090565b5b8082111561172557600081600090555060010161170d565b5090565b600061173c61173784611c8b565b611c66565b90508281526020810184848401111561175457600080fd5b61175f848285611d2b565b509392505050565b60008135905061177681611e3f565b92915050565b600082601f83011261178d57600080fd5b813561179d848260208601611729565b91505092915050565b6000813590506117b581611e56565b92915050565b6000602082840312156117cd57600080fd5b60006117db84828501611767565b91505092915050565b6000806000606084860312156117f957600080fd5b600061180786828701611767565b935050602084013567ffffffffffffffff81111561182457600080fd5b6118308682870161177c565b925050604084013567ffffffffffffffff81111561184d57600080fd5b6118598682870161177c565b9150509250925092565b60006020828403121561187557600080fd5b600082013567ffffffffffffffff81111561188f57600080fd5b61189b8482850161177c565b91505092915050565b600080604083850312156118b757600080fd5b600083013567ffffffffffffffff8111156118d157600080fd5b6118dd8582860161177c565b92505060206118ee85828601611767565b9150509250929050565b600080600080600080600080610100898b03121561191557600080fd5b600089013567ffffffffffffffff81111561192f57600080fd5b61193b8b828c0161177c565b985050602061194c8b828c016117a6565b975050604089013567ffffffffffffffff81111561196957600080fd5b6119758b828c0161177c565b965050606089013567ffffffffffffffff81111561199257600080fd5b61199e8b828c0161177c565b955050608089013567ffffffffffffffff8111156119bb57600080fd5b6119c78b828c0161177c565b94505060a089013567ffffffffffffffff8111156119e457600080fd5b6119f08b828c0161177c565b93505060c089013567ffffffffffffffff811115611a0d57600080fd5b611a198b828c0161177c565b92505060e089013567ffffffffffffffff811115611a3657600080fd5b611a428b828c0161177c565b9150509295985092959890939650565b611a5b81611ce3565b82525050565b611a6a81611cf5565b82525050565b6000611a7b82611cbc565b611a858185611cc7565b9350611a95818560208601611d3a565b611a9e81611e2e565b840191505092915050565b6000611ab482611cbc565b611abe8185611cd8565b9350611ace818560208601611d3a565b80840191505092915050565b611ae381611d21565b82525050565b6000611af58284611aa9565b915081905092915050565b6000602082019050611b156000830184611a52565b92915050565b6000606082019050611b306000830186611a52565b8181036020830152611b428185611a70565b90508181036040830152611b568184611a70565b9050949350505050565b6000602082019050611b756000830184611a61565b92915050565b60006040820190508181036000830152611b958185611a70565b90508181036020830152611ba98184611a70565b90509392505050565b6000602082019050611bc76000830184611ada565b92915050565b600060e082019050611be2600083018a611ada565b8181036020830152611bf48189611a70565b90508181036040830152611c088188611a70565b90508181036060830152611c1c8187611a70565b90508181036080830152611c308186611a70565b905081810360a0830152611c448185611a70565b905081810360c0830152611c588184611a70565b905098975050505050505050565b6000611c70611c81565b9050611c7c8282611d9f565b919050565b6000604051905090565b600067ffffffffffffffff821115611ca657611ca5611dff565b5b611caf82611e2e565b9050602081019050919050565b600081519050919050565b600082825260208201905092915050565b600081905092915050565b6000611cee82611d01565b9050919050565b60008115159050919050565b600073ffffffffffffffffffffffffffffffffffffffff82169050919050565b6000819050919050565b82818337600083830152505050565b60005b83811015611d58578082015181840152602081019050611d3d565b83811115611d67576000848401525b50505050565b60006002820490506001821680611d8557607f821691505b60208210811415611d9957611d98611dd0565b5b50919050565b611da882611e2e565b810181811067ffffffffffffffff82111715611dc757611dc6611dff565b5b80604052505050565b7f4e487b7100000000000000000000000000000000000000000000000000000000600052602260045260246000fd5b7f4e487b7100000000000000000000000000000000000000000000000000000000600052604160045260246000fd5b6000601f19601f8301169050919050565b611e4881611ce3565b8114611e5357600080fd5b50565b611e5f81611d21565b8114611e6a57600080fd5b5056fea264697066735822122077db0fc41d118f485000e7932fa3d014b0c2e3c56c8d8b00ea3627c433c1fbc664736f6c63430008040033",
  "linkReferences": {},
  "deployedLinkReferences": {}
}