{
  "_format": "hh-sol-artifact-1",
  "contractName": "Trustmed",
  "sourceName": "contracts/trustmed.sol",
  "abi": [
    {
      "inputs": [],
      "stateMutability": "nonpayable",
      "type": "constructor"
    },
    {
      "inputs": [
        {
          "internalType": "string",
          "name": "_code",
          "type": "string"
        },
        {
          "internalType": "address",
          "name": "_newOwner",
          "type": "address"
        }
      ],
      "name": "acceptRequest",
      "outputs": [
        {
          "internalType": "bool",
          "name": "",
          "type": "bool"
        }
      ],
      "stateMutability": "payable",
      "type": "function"
    },
    {
      "inputs": [
        {
          "internalType": "address",
          "name": "_manufacturerAddress",
          "type": "address"
        },
        {
          "internalType": "string",
          "name": "_name",
          "type": "string"
        },
        {
          "internalType": "string",
          "name": "_location",
          "type": "string"
        }
      ],
      "name": "createManufacturer",
      "outputs": [
        {
          "internalType": "bool",
          "name": "",
          "type": "bool"
        }
      ],
      "stateMutability": "payable",
      "type": "function"
    },
    {
      "inputs": [
        {
          "internalType": "address",
          "name": "_retailerAddress",
          "type": "address"
        },
        {
          "internalType": "string",
          "name": "_name",
          "type": "string"
        },
        {
          "internalType": "string",
          "name": "_location",
          "type": "string"
        }
      ],
      "name": "createRetailer",
      "outputs": [
        {
          "internalType": "bool",
          "name": "",
          "type": "bool"
        }
      ],
      "stateMutability": "payable",
      "type": "function"
    },
    {
      "inputs": [],
      "name": "declineRequest",
      "outputs": [
        {
          "internalType": "bool",
          "name": "",
          "type": "bool"
        }
      ],
      "stateMutability": "payable",
      "type": "function"
    },
    {
      "inputs": [
        {
          "internalType": "string",
          "name": "_code",
          "type": "string"
        }
      ],
      "name": "getDetailsNotOwner",
      "outputs": [
        {
          "internalType": "uint256",
          "name": "",
          "type": "uint256"
        },
        {
          "internalType": "string",
          "name": "",
          "type": "string"
        },
        {
          "internalType": "string",
          "name": "",
          "type": "string"
        },
        {
          "internalType": "string",
          "name": "",
          "type": "string"
        },
        {
          "internalType": "string",
          "name": "",
          "type": "string"
        },
        {
          "internalType": "string",
          "name": "",
          "type": "string"
        },
        {
          "internalType": "string",
          "name": "",
          "type": "string"
        }
      ],
      "stateMutability": "view",
      "type": "function"
    },
    {
      "inputs": [
        {
          "internalType": "string",
          "name": "_code",
          "type": "string"
        }
      ],
      "name": "getDetailsOwner",
      "outputs": [
        {
          "internalType": "address",
          "name": "",
          "type": "address"
        },
        {
          "internalType": "string",
          "name": "",
          "type": "string"
        },
        {
          "internalType": "string",
          "name": "",
          "type": "string"
        }
      ],
      "stateMutability": "view",
      "type": "function"
    },
    {
      "inputs": [],
      "name": "getRequest",
      "outputs": [
        {
          "internalType": "string",
          "name": "",
          "type": "string"
        },
        {
          "internalType": "string",
          "name": "",
          "type": "string"
        },
        {
          "internalType": "address",
          "name": "",
          "type": "address"
        }
      ],
      "stateMutability": "view",
      "type": "function"
    },
    {
      "inputs": [
        {
          "internalType": "address",
          "name": "_address",
          "type": "address"
        }
      ],
      "name": "getRetailerDetails",
      "outputs": [
        {
          "internalType": "string",
          "name": "",
          "type": "string"
        },
        {
          "internalType": "string",
          "name": "",
          "type": "string"
        }
      ],
      "stateMutability": "view",
      "type": "function"
    },
    {
      "inputs": [
        {
          "internalType": "string",
          "name": "_code",
          "type": "string"
        }
      ],
      "name": "initialOwner",
      "outputs": [
        {
          "internalType": "bool",
          "name": "",
          "type": "bool"
        }
      ],
      "stateMutability": "payable",
      "type": "function"
    },
    {
      "inputs": [],
      "name": "isManufacturer",
      "outputs": [
        {
          "internalType": "bool",
          "name": "",
          "type": "bool"
        }
      ],
      "stateMutability": "view",
      "type": "function"
    },
    {
      "inputs": [
        {
          "internalType": "string",
          "name": "_code",
          "type": "string"
        }
      ],
      "name": "isProduct",
      "outputs": [
        {
          "internalType": "bool",
          "name": "",
          "type": "bool"
        }
      ],
      "stateMutability": "view",
      "type": "function"
    },
    {
      "inputs": [],
      "name": "isRetailer",
      "outputs": [
        {
          "internalType": "bool",
          "name": "",
          "type": "bool"
        }
      ],
      "stateMutability": "view",
      "type": "function"
    },
    {
      "inputs": [],
      "name": "isSuperAdmin",
      "outputs": [
        {
          "internalType": "bool",
          "name": "",
          "type": "bool"
        }
      ],
      "stateMutability": "view",
      "type": "function"
    },
    {
      "inputs": [
        {
          "internalType": "string",
          "name": "_code",
          "type": "string"
        }
      ],
      "name": "makeRequest",
      "outputs": [
        {
          "internalType": "bool",
          "name": "",
          "type": "bool"
        }
      ],
      "stateMutability": "payable",
      "type": "function"
    },
    {
      "inputs": [
        {
          "internalType": "string",
          "name": "_code",
          "type": "string"
        },
        {
          "internalType": "uint256",
          "name": "_status",
          "type": "uint256"
        },
        {
          "internalType": "string",
          "name": "_brand",
          "type": "string"
        },
        {
          "internalType": "string",
          "name": "_model",
          "type": "string"
        },
        {
          "internalType": "string",
          "name": "_description",
          "type": "string"
        },
        {
          "internalType": "string",
          "name": "_manufName",
          "type": "string"
        },
        {
          "internalType": "string",
          "name": "_manufLocation",
          "type": "string"
        },
        {
          "internalType": "string",
          "name": "_manufTimestamp",
          "type": "string"
        }
      ],
      "name": "registerProduct",
      "outputs": [
        {
          "internalType": "uint256",
          "name": "",
          "type": "uint256"
        }
      ],
      "stateMutability": "payable",
      "type": "function"
    },
    {
      "inputs": [
        {
          "internalType": "string",
          "name": "_code",
          "type": "string"
        },
        {
          "internalType": "address",
          "name": "_newOwner",
          "type": "address"
        }
      ],
      "name": "transferOwnership",
      "outputs": [
        {
          "internalType": "uint256",
          "name": "",
          "type": "uint256"
        }
      ],
      "stateMutability": "payable",
      "type": "function"
    }
  ],
  "bytecode": "0x608060405234801561001057600080fd5b50336000806101000a81548173ffffffffffffffffffffffffffffffffffffffff021916908373ffffffffffffffffffffffffffffffffffffffff160217905550612238806100606000396000f3fe6080604052600436106100f35760003560e01c806393583b891161008a578063ce02966811610059578063ce02966814610322578063d4a8f72914610352578063d90b404214610391578063e4df6a59146103d4576100f3565b806393583b891461026a578063c0e793c214610295578063c2bb515f146102c5578063c3c7fd5a146102f2576100f3565b80635faa83fc116100c65780635faa83fc146101b357806363ba8315146101de578063873aaadc1461021c5780638e9dc3801461023a576100f3565b80632bcb56f9146100f8578063477ba645146101285780634b2e14c91461015357806356dae6c614610183575b600080fd5b610112600480360381019061010d9190611b64565b610411565b60405161011f9190611e9b565b60405180910390f35b34801561013457600080fd5b5061013d610578565b60405161014a9190611e9b565b60405180910390f35b61016d60048036038101906101689190611bb8565b610621565b60405161017a9190611f32565b60405180910390f35b61019d60048036038101906101989190611b23565b61075e565b6040516101aa9190611e9b565b60405180910390f35b3480156101bf57600080fd5b506101c861084b565b6040516101d59190611e9b565b60405180910390f35b3480156101ea57600080fd5b5061020560048036038101906102009190611a7b565b6108b2565b604051610213929190611eb6565b60405180910390f35b610224610a5a565b6040516102319190611e9b565b60405180910390f35b610254600480360381019061024f9190611b23565b610adc565b6040516102619190611e9b565b60405180910390f35b34801561027657600080fd5b5061027f610bc7565b60405161028c9190611e9b565b60405180910390f35b6102af60048036038101906102aa9190611b64565b610c70565b6040516102bc9190611f32565b60405180910390f35b3480156102d157600080fd5b506102da610d5b565b6040516102e993929190611eed565b60405180910390f35b61030c60048036038101906103079190611aa4565b610f8a565b6040516103199190611e9b565b60405180910390f35b61033c60048036038101906103379190611aa4565b6110af565b6040516103499190611e9b565b60405180910390f35b34801561035e57600080fd5b5061037960048036038101906103749190611b23565b6111f1565b60405161038893929190611e56565b60405180910390f35b34801561039d57600080fd5b506103b860048036038101906103b39190611b23565b611463565b6040516103cb9796959493929190611f4d565b60405180910390f35b3480156103e057600080fd5b506103fb60048036038101906103f69190611b23565b6118b7565b6040516104089190611e9b565b60405180910390f35b6000816001846040516104249190611e28565b908152602001604051809103902060070160016101000a81548173ffffffffffffffffffffffffffffffffffffffff021916908373ffffffffffffffffffffffffffffffffffffffff1602179055506001836040516104839190611e28565b9081526020016040518091039020600801829080600181540180825580915050600190039060005260206000200160009091909190916101000a81548173ffffffffffffffffffffffffffffffffffffffff021916908373ffffffffffffffffffffffffffffffffffffffff160217905550600460003373ffffffffffffffffffffffffffffffffffffffff1673ffffffffffffffffffffffffffffffffffffffff168152602001908152602001600020600080820160006101000a81549073ffffffffffffffffffffffffffffffffffffffff021916905560018201600061056c9190611906565b50506001905092915050565b60003373ffffffffffffffffffffffffffffffffffffffff16600260003373ffffffffffffffffffffffffffffffffffffffff1673ffffffffffffffffffffffffffffffffffffffff16815260200190815260200160002060000160009054906101000a900473ffffffffffffffffffffffffffffffffffffffff1673ffffffffffffffffffffffffffffffffffffffff161415610619576001905061061e565b600090505b90565b60008060018a6040516106349190611e28565b908152602001604051809103902090508781600101908051906020019061065c929190611946565b508881600001819055508681600201908051906020019061067e929190611946565b5085816003019080519060200190610697929190611946565b50848160040190805190602001906106b0929190611946565b50838160050190805190602001906106c9929190611946565b50828160060190805190602001906106e2929190611946565b50338160070160016101000a81548173ffffffffffffffffffffffffffffffffffffffff021916908373ffffffffffffffffffffffffffffffffffffffff16021790555060018160070160006101000a81548160ff02191690831515021790555061074c8a61075e565b50600191505098975050505050505050565b6000336001836040516107719190611e28565b908152602001604051809103902060070160016101000a81548173ffffffffffffffffffffffffffffffffffffffff021916908373ffffffffffffffffffffffffffffffffffffffff1602179055506001826040516107d09190611e28565b9081526020016040518091039020600801339080600181540180825580915050600190039060005260206000200160009091909190916101000a81548173ffffffffffffffffffffffffffffffffffffffff021916908373ffffffffffffffffffffffffffffffffffffffff16021790555060019050919050565b60003373ffffffffffffffffffffffffffffffffffffffff1660008054906101000a900473ffffffffffffffffffffffffffffffffffffffff1673ffffffffffffffffffffffffffffffffffffffff1614156108aa57600190506108af565b600090505b90565b606080600260008473ffffffffffffffffffffffffffffffffffffffff1673ffffffffffffffffffffffffffffffffffffffff168152602001908152602001600020600101600260008573ffffffffffffffffffffffffffffffffffffffff1673ffffffffffffffffffffffffffffffffffffffff16815260200190815260200160002060020181805461094590612102565b80601f016020809104026020016040519081016040528092919081815260200182805461097190612102565b80156109be5780601f10610993576101008083540402835291602001916109be565b820191906000526020600020905b8154815290600101906020018083116109a157829003601f168201915b505050505091508080546109d190612102565b80601f01602080910402602001604051908101604052809291908181526020018280546109fd90612102565b8015610a4a5780601f10610a1f57610100808354040283529160200191610a4a565b820191906000526020600020905b815481529060010190602001808311610a2d57829003601f168201915b5050505050905091509150915091565b6000600460003373ffffffffffffffffffffffffffffffffffffffff1673ffffffffffffffffffffffffffffffffffffffff168152602001908152602001600020600080820160006101000a81549073ffffffffffffffffffffffffffffffffffffffff0219169055600182016000610ad39190611906565b50506001905090565b60008060046000600185604051610af39190611e28565b908152602001604051809103902060070160019054906101000a900473ffffffffffffffffffffffffffffffffffffffff1673ffffffffffffffffffffffffffffffffffffffff1673ffffffffffffffffffffffffffffffffffffffff168152602001908152602001600020905082816001019080519060200190610b79929190611946565b50338160000160006101000a81548173ffffffffffffffffffffffffffffffffffffffff021916908373ffffffffffffffffffffffffffffffffffffffff1602179055506001915050919050565b60003373ffffffffffffffffffffffffffffffffffffffff16600360003373ffffffffffffffffffffffffffffffffffffffff1673ffffffffffffffffffffffffffffffffffffffff16815260200190815260200160002060000160009054906101000a900473ffffffffffffffffffffffffffffffffffffffff1673ffffffffffffffffffffffffffffffffffffffff161415610c685760019050610c6d565b600090505b90565b60003373ffffffffffffffffffffffffffffffffffffffff16600184604051610c999190611e28565b908152602001604051809103902060070160019054906101000a900473ffffffffffffffffffffffffffffffffffffffff1673ffffffffffffffffffffffffffffffffffffffff161415610d505781600184604051610cf89190611e28565b908152602001604051809103902060070160016101000a81548173ffffffffffffffffffffffffffffffffffffffff021916908373ffffffffffffffffffffffffffffffffffffffff16021790555060019050610d55565b600090505b92915050565b6060806000600460003373ffffffffffffffffffffffffffffffffffffffff1673ffffffffffffffffffffffffffffffffffffffff1681526020019081526020016000206001016001600460003373ffffffffffffffffffffffffffffffffffffffff1673ffffffffffffffffffffffffffffffffffffffff168152602001908152602001600020600101604051610df39190611e3f565b9081526020016040518091039020600101600460003373ffffffffffffffffffffffffffffffffffffffff1673ffffffffffffffffffffffffffffffffffffffff16815260200190815260200160002060000160009054906101000a900473ffffffffffffffffffffffffffffffffffffffff16828054610e7390612102565b80601f0160208091040260200160405190810160405280929190818152602001828054610e9f90612102565b8015610eec5780601f10610ec157610100808354040283529160200191610eec565b820191906000526020600020905b815481529060010190602001808311610ecf57829003601f168201915b50505050509250818054610eff90612102565b80601f0160208091040260200160405190810160405280929190818152602001828054610f2b90612102565b8015610f785780601f10610f4d57610100808354040283529160200191610f78565b820191906000526020600020905b815481529060010190602001808311610f5b57829003601f168201915b50505050509150925092509250909192565b6000600360008573ffffffffffffffffffffffffffffffffffffffff1673ffffffffffffffffffffffffffffffffffffffff16815260200190815260200160002060030160009054906101000a900460ff1615610fea57600090506110a8565b6000600360008673ffffffffffffffffffffffffffffffffffffffff1673ffffffffffffffffffffffffffffffffffffffff1681526020019081526020016000209050848160000160006101000a81548173ffffffffffffffffffffffffffffffffffffffff021916908373ffffffffffffffffffffffffffffffffffffffff16021790555083816001019080519060200190611088929190611946565b50828160020190805190602001906110a1929190611946565b5060019150505b9392505050565b6000600260008573ffffffffffffffffffffffffffffffffffffffff1673ffffffffffffffffffffffffffffffffffffffff16815260200190815260200160002060030160009054906101000a900460ff161561110f57600090506111ea565b6000600260008673ffffffffffffffffffffffffffffffffffffffff1673ffffffffffffffffffffffffffffffffffffffff1681526020019081526020016000209050848160000160006101000a81548173ffffffffffffffffffffffffffffffffffffffff021916908373ffffffffffffffffffffffffffffffffffffffff160217905550838160010190805190602001906111ad929190611946565b50828160020190805190602001906111c6929190611946565b5060018160030160006101000a81548160ff02191690831515021790555060019150505b9392505050565b60006060806001846040516112069190611e28565b908152602001604051809103902060070160019054906101000a900473ffffffffffffffffffffffffffffffffffffffff166002600060018760405161124c9190611e28565b908152602001604051809103902060070160019054906101000a900473ffffffffffffffffffffffffffffffffffffffff1673ffffffffffffffffffffffffffffffffffffffff1673ffffffffffffffffffffffffffffffffffffffff168152602001908152602001600020600101600260006001886040516112cf9190611e28565b908152602001604051809103902060070160019054906101000a900473ffffffffffffffffffffffffffffffffffffffff1673ffffffffffffffffffffffffffffffffffffffff1673ffffffffffffffffffffffffffffffffffffffff16815260200190815260200160002060020181805461134a90612102565b80601f016020809104026020016040519081016040528092919081815260200182805461137690612102565b80156113c35780601f10611398576101008083540402835291602001916113c3565b820191906000526020600020905b8154815290600101906020018083116113a657829003601f168201915b505050505091508080546113d690612102565b80601f016020809104026020016040519081016040528092919081815260200182805461140290612102565b801561144f5780601f106114245761010080835404028352916020019161144f565b820191906000526020600020905b81548152906001019060200180831161143257829003601f168201915b505050505090509250925092509193909250565b600060608060608060608060018860405161147e9190611e28565b9081526020016040518091039020600001546001896040516114a09190611e28565b908152602001604051809103902060010160018a6040516114c19190611e28565b908152602001604051809103902060020160018b6040516114e29190611e28565b908152602001604051809103902060030160018c6040516115039190611e28565b908152602001604051809103902060040160018d6040516115249190611e28565b908152602001604051809103902060050160018e6040516115459190611e28565b908152602001604051809103902060060185805461156290612102565b80601f016020809104026020016040519081016040528092919081815260200182805461158e90612102565b80156115db5780601f106115b0576101008083540402835291602001916115db565b820191906000526020600020905b8154815290600101906020018083116115be57829003601f168201915b505050505095508480546115ee90612102565b80601f016020809104026020016040519081016040528092919081815260200182805461161a90612102565b80156116675780601f1061163c57610100808354040283529160200191611667565b820191906000526020600020905b81548152906001019060200180831161164a57829003601f168201915b5050505050945083805461167a90612102565b80601f01602080910402602001604051908101604052809291908181526020018280546116a690612102565b80156116f35780601f106116c8576101008083540402835291602001916116f3565b820191906000526020600020905b8154815290600101906020018083116116d657829003601f168201915b5050505050935082805461170690612102565b80601f016020809104026020016040519081016040528092919081815260200182805461173290612102565b801561177f5780601f106117545761010080835404028352916020019161177f565b820191906000526020600020905b81548152906001019060200180831161176257829003601f168201915b5050505050925081805461179290612102565b80601f01602080910402602001604051908101604052809291908181526020018280546117be90612102565b801561180b5780601f106117e05761010080835404028352916020019161180b565b820191906000526020600020905b8154815290600101906020018083116117ee57829003601f168201915b5050505050915080805461181e90612102565b80601f016020809104026020016040519081016040528092919081815260200182805461184a90612102565b80156118975780601f1061186c57610100808354040283529160200191611897565b820191906000526020600020905b81548152906001019060200180831161187a57829003601f168201915b505050505090509650965096509650965096509650919395979092949650565b60008015156001836040516118cc9190611e28565b908152602001604051809103902060070160009054906101000a900460ff16151514156118fc5760009050611901565b600190505b919050565b50805461191290612102565b6000825580601f106119245750611943565b601f01602090049060005260206000209081019061194291906119cc565b5b50565b82805461195290612102565b90600052602060002090601f01602090048101928261197457600085556119bb565b82601f1061198d57805160ff19168380011785556119bb565b828001600101855582156119bb579182015b828111156119ba57825182559160200191906001019061199f565b5b5090506119c891906119cc565b5090565b5b808211156119e55760008160009055506001016119cd565b5090565b60006119fc6119f78461200b565b611fe6565b905082815260208101848484011115611a1457600080fd5b611a1f8482856120c0565b509392505050565b600081359050611a36816121d4565b92915050565b600082601f830112611a4d57600080fd5b8135611a5d8482602086016119e9565b91505092915050565b600081359050611a75816121eb565b92915050565b600060208284031215611a8d57600080fd5b6000611a9b84828501611a27565b91505092915050565b600080600060608486031215611ab957600080fd5b6000611ac786828701611a27565b935050602084013567ffffffffffffffff811115611ae457600080fd5b611af086828701611a3c565b925050604084013567ffffffffffffffff811115611b0d57600080fd5b611b1986828701611a3c565b9150509250925092565b600060208284031215611b3557600080fd5b600082013567ffffffffffffffff811115611b4f57600080fd5b611b5b84828501611a3c565b91505092915050565b60008060408385031215611b7757600080fd5b600083013567ffffffffffffffff811115611b9157600080fd5b611b9d85828601611a3c565b9250506020611bae85828601611a27565b9150509250929050565b600080600080600080600080610100898b031215611bd557600080fd5b600089013567ffffffffffffffff811115611bef57600080fd5b611bfb8b828c01611a3c565b9850506020611c0c8b828c01611a66565b975050604089013567ffffffffffffffff811115611c2957600080fd5b611c358b828c01611a3c565b965050606089013567ffffffffffffffff811115611c5257600080fd5b611c5e8b828c01611a3c565b955050608089013567ffffffffffffffff811115611c7b57600080fd5b611c878b828c01611a3c565b94505060a089013567ffffffffffffffff811115611ca457600080fd5b611cb08b828c01611a3c565b93505060c089013567ffffffffffffffff811115611ccd57600080fd5b611cd98b828c01611a3c565b92505060e089013567ffffffffffffffff811115611cf657600080fd5b611d028b828c01611a3c565b9150509295985092959890939650565b611d1b81612078565b82525050565b611d2a8161208a565b82525050565b6000611d3b82612051565b611d45818561205c565b9350611d558185602086016120cf565b611d5e816121c3565b840191505092915050565b6000611d7482612051565b611d7e818561206d565b9350611d8e8185602086016120cf565b80840191505092915050565b60008154611da781612102565b611db1818661206d565b94506001821660008114611dcc5760018114611ddd57611e10565b60ff19831686528186019350611e10565b611de68561203c565b60005b83811015611e0857815481890152600182019150602081019050611de9565b838801955050505b50505092915050565b611e22816120b6565b82525050565b6000611e348284611d69565b915081905092915050565b6000611e4b8284611d9a565b915081905092915050565b6000606082019050611e6b6000830186611d12565b8181036020830152611e7d8185611d30565b90508181036040830152611e918184611d30565b9050949350505050565b6000602082019050611eb06000830184611d21565b92915050565b60006040820190508181036000830152611ed08185611d30565b90508181036020830152611ee48184611d30565b90509392505050565b60006060820190508181036000830152611f078186611d30565b90508181036020830152611f1b8185611d30565b9050611f2a6040830184611d12565b949350505050565b6000602082019050611f476000830184611e19565b92915050565b600060e082019050611f62600083018a611e19565b8181036020830152611f748189611d30565b90508181036040830152611f888188611d30565b90508181036060830152611f9c8187611d30565b90508181036080830152611fb08186611d30565b905081810360a0830152611fc48185611d30565b905081810360c0830152611fd88184611d30565b905098975050505050505050565b6000611ff0612001565b9050611ffc8282612134565b919050565b6000604051905090565b600067ffffffffffffffff82111561202657612025612194565b5b61202f826121c3565b9050602081019050919050565b60008190508160005260206000209050919050565b600081519050919050565b600082825260208201905092915050565b600081905092915050565b600061208382612096565b9050919050565b60008115159050919050565b600073ffffffffffffffffffffffffffffffffffffffff82169050919050565b6000819050919050565b82818337600083830152505050565b60005b838110156120ed5780820151818401526020810190506120d2565b838111156120fc576000848401525b50505050565b6000600282049050600182168061211a57607f821691505b6020821081141561212e5761212d612165565b5b50919050565b61213d826121c3565b810181811067ffffffffffffffff8211171561215c5761215b612194565b5b80604052505050565b7f4e487b7100000000000000000000000000000000000000000000000000000000600052602260045260246000fd5b7f4e487b7100000000000000000000000000000000000000000000000000000000600052604160045260246000fd5b6000601f19601f8301169050919050565b6121dd81612078565b81146121e857600080fd5b50565b6121f4816120b6565b81146121ff57600080fd5b5056fea2646970667358221220280092af1be8fc080622c1b6f09ad985e95435d55ac48bf307b89446fa7570f664736f6c63430008040033",
  "linkReferences": {},
  "deployedLinkReferences": {}
}