{
  "_format": "hh-sol-artifact-1",
  "contractName": "Trustmed",
  "sourceName": "contracts/trustmed.sol",
  "abi": [
    {
      "inputs": [],
      "stateMutability": "nonpayable",
      "type": "constructor"
    },
    {
      "inputs": [
        {
          "internalType": "string",
          "name": "_code",
          "type": "string"
        },
        {
          "internalType": "address",
          "name": "_newOwner",
          "type": "address"
        }
      ],
      "name": "acceptRequest",
      "outputs": [
        {
          "internalType": "bool",
          "name": "",
          "type": "bool"
        }
      ],
      "stateMutability": "nonpayable",
      "type": "function"
    },
    {
      "inputs": [
        {
          "internalType": "address",
          "name": "_manufacturerAddress",
          "type": "address"
        },
        {
          "internalType": "string",
          "name": "_name",
          "type": "string"
        },
        {
          "internalType": "string",
          "name": "_location",
          "type": "string"
        }
      ],
      "name": "createManufacturer",
      "outputs": [
        {
          "internalType": "bool",
          "name": "",
          "type": "bool"
        }
      ],
      "stateMutability": "nonpayable",
      "type": "function"
    },
    {
      "inputs": [
        {
          "internalType": "address",
          "name": "_retailerAddress",
          "type": "address"
        },
        {
          "internalType": "string",
          "name": "_name",
          "type": "string"
        },
        {
          "internalType": "string",
          "name": "_location",
          "type": "string"
        }
      ],
      "name": "createRetailer",
      "outputs": [
        {
          "internalType": "bool",
          "name": "",
          "type": "bool"
        }
      ],
      "stateMutability": "nonpayable",
      "type": "function"
    },
    {
      "inputs": [],
      "name": "declineRequest",
      "outputs": [
        {
          "internalType": "bool",
          "name": "",
          "type": "bool"
        }
      ],
      "stateMutability": "nonpayable",
      "type": "function"
    },
    {
      "inputs": [
        {
          "internalType": "string",
          "name": "_code",
          "type": "string"
        }
      ],
      "name": "getDetailsNotOwner",
      "outputs": [
        {
          "internalType": "uint256",
          "name": "",
          "type": "uint256"
        },
        {
          "internalType": "string",
          "name": "",
          "type": "string"
        },
        {
          "internalType": "string",
          "name": "",
          "type": "string"
        },
        {
          "internalType": "string",
          "name": "",
          "type": "string"
        },
        {
          "internalType": "string",
          "name": "",
          "type": "string"
        },
        {
          "internalType": "string",
          "name": "",
          "type": "string"
        },
        {
          "internalType": "string",
          "name": "",
          "type": "string"
        }
      ],
      "stateMutability": "view",
      "type": "function"
    },
    {
      "inputs": [
        {
          "internalType": "string",
          "name": "_code",
          "type": "string"
        }
      ],
      "name": "getDetailsOwner",
      "outputs": [
        {
          "internalType": "address",
          "name": "",
          "type": "address"
        },
        {
          "internalType": "string",
          "name": "",
          "type": "string"
        },
        {
          "internalType": "string",
          "name": "",
          "type": "string"
        }
      ],
      "stateMutability": "view",
      "type": "function"
    },
    {
      "inputs": [],
      "name": "getRequest",
      "outputs": [
        {
          "internalType": "string",
          "name": "",
          "type": "string"
        },
        {
          "internalType": "string",
          "name": "",
          "type": "string"
        },
        {
          "internalType": "address",
          "name": "",
          "type": "address"
        }
      ],
      "stateMutability": "view",
      "type": "function"
    },
    {
      "inputs": [
        {
          "internalType": "address",
          "name": "_address",
          "type": "address"
        }
      ],
      "name": "getRetailerDetails",
      "outputs": [
        {
          "internalType": "string",
          "name": "",
          "type": "string"
        },
        {
          "internalType": "string",
          "name": "",
          "type": "string"
        }
      ],
      "stateMutability": "view",
      "type": "function"
    },
    {
      "inputs": [
        {
          "internalType": "string",
          "name": "_code",
          "type": "string"
        }
      ],
      "name": "initialOwner",
      "outputs": [
        {
          "internalType": "bool",
          "name": "",
          "type": "bool"
        }
      ],
      "stateMutability": "nonpayable",
      "type": "function"
    },
    {
      "inputs": [],
      "name": "isManufacturer",
      "outputs": [
        {
          "internalType": "bool",
          "name": "",
          "type": "bool"
        }
      ],
      "stateMutability": "view",
      "type": "function"
    },
    {
      "inputs": [
        {
          "internalType": "string",
          "name": "_code",
          "type": "string"
        }
      ],
      "name": "isProduct",
      "outputs": [
        {
          "internalType": "bool",
          "name": "",
          "type": "bool"
        }
      ],
      "stateMutability": "view",
      "type": "function"
    },
    {
      "inputs": [],
      "name": "isRetailer",
      "outputs": [
        {
          "internalType": "bool",
          "name": "",
          "type": "bool"
        }
      ],
      "stateMutability": "view",
      "type": "function"
    },
    {
      "inputs": [],
      "name": "isSuperAdmin",
      "outputs": [
        {
          "internalType": "bool",
          "name": "",
          "type": "bool"
        }
      ],
      "stateMutability": "view",
      "type": "function"
    },
    {
      "inputs": [
        {
          "internalType": "string",
          "name": "_code",
          "type": "string"
        }
      ],
      "name": "makeRequest",
      "outputs": [
        {
          "internalType": "bool",
          "name": "",
          "type": "bool"
        }
      ],
      "stateMutability": "nonpayable",
      "type": "function"
    },
    {
      "inputs": [
        {
          "internalType": "string",
          "name": "_code",
          "type": "string"
        },
        {
          "internalType": "uint256",
          "name": "_status",
          "type": "uint256"
        },
        {
          "internalType": "string",
          "name": "_brand",
          "type": "string"
        },
        {
          "internalType": "string",
          "name": "_model",
          "type": "string"
        },
        {
          "internalType": "string",
          "name": "_description",
          "type": "string"
        },
        {
          "internalType": "string",
          "name": "_manufName",
          "type": "string"
        },
        {
          "internalType": "string",
          "name": "_manufLocation",
          "type": "string"
        },
        {
          "internalType": "string",
          "name": "_manufTimestamp",
          "type": "string"
        }
      ],
      "name": "registerProduct",
      "outputs": [
        {
          "internalType": "uint256",
          "name": "",
          "type": "uint256"
        }
      ],
      "stateMutability": "nonpayable",
      "type": "function"
    },
    {
      "inputs": [
        {
          "internalType": "string",
          "name": "_code",
          "type": "string"
        },
        {
          "internalType": "address",
          "name": "_newOwner",
          "type": "address"
        }
      ],
      "name": "transferOwnership",
      "outputs": [
        {
          "internalType": "uint256",
          "name": "",
          "type": "uint256"
        }
      ],
      "stateMutability": "nonpayable",
      "type": "function"
    }
  ],
  "bytecode": "0x608060405234801561001057600080fd5b50336000806101000a81548173ffffffffffffffffffffffffffffffffffffffff021916908373ffffffffffffffffffffffffffffffffffffffff1602179055506121dd806100606000396000f3fe608060405234801561001057600080fd5b50600436106101005760003560e01c806393583b8911610097578063ce02966811610066578063ce029668146102ee578063d4a8f7291461031e578063d90b404214610350578063e4df6a591461038657610100565b806393583b8914610250578063c0e793c21461026e578063c2bb515f1461029e578063c3c7fd5a146102be57610100565b80635faa83fc116100d35780635faa83fc146101b357806363ba8315146101d1578063873aaadc146102025780638e9dc3801461022057610100565b80632bcb56f914610105578063477ba645146101355780634b2e14c91461015357806356dae6c614610183575b600080fd5b61011f600480360381019061011a9190611b09565b6103b6565b60405161012c9190611e40565b60405180910390f35b61013d61051d565b60405161014a9190611e40565b60405180910390f35b61016d60048036038101906101689190611b5d565b6105c6565b60405161017a9190611ed7565b60405180910390f35b61019d60048036038101906101989190611ac8565b610703565b6040516101aa9190611e40565b60405180910390f35b6101bb6107f0565b6040516101c89190611e40565b60405180910390f35b6101eb60048036038101906101e69190611a20565b610857565b6040516101f9929190611e5b565b60405180910390f35b61020a6109ff565b6040516102179190611e40565b60405180910390f35b61023a60048036038101906102359190611ac8565b610a81565b6040516102479190611e40565b60405180910390f35b610258610b6c565b6040516102659190611e40565b60405180910390f35b61028860048036038101906102839190611b09565b610c15565b6040516102959190611ed7565b60405180910390f35b6102a6610d00565b6040516102b593929190611e92565b60405180910390f35b6102d860048036038101906102d39190611a49565b610f2f565b6040516102e59190611e40565b60405180910390f35b61030860048036038101906103039190611a49565b611054565b6040516103159190611e40565b60405180910390f35b61033860048036038101906103339190611ac8565b611196565b60405161034793929190611dfb565b60405180910390f35b61036a60048036038101906103659190611ac8565b611408565b60405161037d9796959493929190611ef2565b60405180910390f35b6103a0600480360381019061039b9190611ac8565b61185c565b6040516103ad9190611e40565b60405180910390f35b6000816001846040516103c99190611dcd565b908152602001604051809103902060070160016101000a81548173ffffffffffffffffffffffffffffffffffffffff021916908373ffffffffffffffffffffffffffffffffffffffff1602179055506001836040516104289190611dcd565b9081526020016040518091039020600801829080600181540180825580915050600190039060005260206000200160009091909190916101000a81548173ffffffffffffffffffffffffffffffffffffffff021916908373ffffffffffffffffffffffffffffffffffffffff160217905550600460003373ffffffffffffffffffffffffffffffffffffffff1673ffffffffffffffffffffffffffffffffffffffff168152602001908152602001600020600080820160006101000a81549073ffffffffffffffffffffffffffffffffffffffff021916905560018201600061051191906118ab565b50506001905092915050565b60003373ffffffffffffffffffffffffffffffffffffffff16600260003373ffffffffffffffffffffffffffffffffffffffff1673ffffffffffffffffffffffffffffffffffffffff16815260200190815260200160002060000160009054906101000a900473ffffffffffffffffffffffffffffffffffffffff1673ffffffffffffffffffffffffffffffffffffffff1614156105be57600190506105c3565b600090505b90565b60008060018a6040516105d99190611dcd565b90815260200160405180910390209050878160010190805190602001906106019291906118eb565b50888160000181905550868160020190805190602001906106239291906118eb565b508581600301908051906020019061063c9291906118eb565b50848160040190805190602001906106559291906118eb565b508381600501908051906020019061066e9291906118eb565b50828160060190805190602001906106879291906118eb565b50338160070160016101000a81548173ffffffffffffffffffffffffffffffffffffffff021916908373ffffffffffffffffffffffffffffffffffffffff16021790555060018160070160006101000a81548160ff0219169083151502179055506106f18a610703565b50600191505098975050505050505050565b6000336001836040516107169190611dcd565b908152602001604051809103902060070160016101000a81548173ffffffffffffffffffffffffffffffffffffffff021916908373ffffffffffffffffffffffffffffffffffffffff1602179055506001826040516107759190611dcd565b9081526020016040518091039020600801339080600181540180825580915050600190039060005260206000200160009091909190916101000a81548173ffffffffffffffffffffffffffffffffffffffff021916908373ffffffffffffffffffffffffffffffffffffffff16021790555060019050919050565b60003373ffffffffffffffffffffffffffffffffffffffff1660008054906101000a900473ffffffffffffffffffffffffffffffffffffffff1673ffffffffffffffffffffffffffffffffffffffff16141561084f5760019050610854565b600090505b90565b606080600260008473ffffffffffffffffffffffffffffffffffffffff1673ffffffffffffffffffffffffffffffffffffffff168152602001908152602001600020600101600260008573ffffffffffffffffffffffffffffffffffffffff1673ffffffffffffffffffffffffffffffffffffffff1681526020019081526020016000206002018180546108ea906120a7565b80601f0160208091040260200160405190810160405280929190818152602001828054610916906120a7565b80156109635780601f1061093857610100808354040283529160200191610963565b820191906000526020600020905b81548152906001019060200180831161094657829003601f168201915b50505050509150808054610976906120a7565b80601f01602080910402602001604051908101604052809291908181526020018280546109a2906120a7565b80156109ef5780601f106109c4576101008083540402835291602001916109ef565b820191906000526020600020905b8154815290600101906020018083116109d257829003601f168201915b5050505050905091509150915091565b6000600460003373ffffffffffffffffffffffffffffffffffffffff1673ffffffffffffffffffffffffffffffffffffffff168152602001908152602001600020600080820160006101000a81549073ffffffffffffffffffffffffffffffffffffffff0219169055600182016000610a7891906118ab565b50506001905090565b60008060046000600185604051610a989190611dcd565b908152602001604051809103902060070160019054906101000a900473ffffffffffffffffffffffffffffffffffffffff1673ffffffffffffffffffffffffffffffffffffffff1673ffffffffffffffffffffffffffffffffffffffff168152602001908152602001600020905082816001019080519060200190610b1e9291906118eb565b50338160000160006101000a81548173ffffffffffffffffffffffffffffffffffffffff021916908373ffffffffffffffffffffffffffffffffffffffff1602179055506001915050919050565b60003373ffffffffffffffffffffffffffffffffffffffff16600360003373ffffffffffffffffffffffffffffffffffffffff1673ffffffffffffffffffffffffffffffffffffffff16815260200190815260200160002060000160009054906101000a900473ffffffffffffffffffffffffffffffffffffffff1673ffffffffffffffffffffffffffffffffffffffff161415610c0d5760019050610c12565b600090505b90565b60003373ffffffffffffffffffffffffffffffffffffffff16600184604051610c3e9190611dcd565b908152602001604051809103902060070160019054906101000a900473ffffffffffffffffffffffffffffffffffffffff1673ffffffffffffffffffffffffffffffffffffffff161415610cf55781600184604051610c9d9190611dcd565b908152602001604051809103902060070160016101000a81548173ffffffffffffffffffffffffffffffffffffffff021916908373ffffffffffffffffffffffffffffffffffffffff16021790555060019050610cfa565b600090505b92915050565b6060806000600460003373ffffffffffffffffffffffffffffffffffffffff1673ffffffffffffffffffffffffffffffffffffffff1681526020019081526020016000206001016001600460003373ffffffffffffffffffffffffffffffffffffffff1673ffffffffffffffffffffffffffffffffffffffff168152602001908152602001600020600101604051610d989190611de4565b9081526020016040518091039020600101600460003373ffffffffffffffffffffffffffffffffffffffff1673ffffffffffffffffffffffffffffffffffffffff16815260200190815260200160002060000160009054906101000a900473ffffffffffffffffffffffffffffffffffffffff16828054610e18906120a7565b80601f0160208091040260200160405190810160405280929190818152602001828054610e44906120a7565b8015610e915780601f10610e6657610100808354040283529160200191610e91565b820191906000526020600020905b815481529060010190602001808311610e7457829003601f168201915b50505050509250818054610ea4906120a7565b80601f0160208091040260200160405190810160405280929190818152602001828054610ed0906120a7565b8015610f1d5780601f10610ef257610100808354040283529160200191610f1d565b820191906000526020600020905b815481529060010190602001808311610f0057829003601f168201915b50505050509150925092509250909192565b6000600360008573ffffffffffffffffffffffffffffffffffffffff1673ffffffffffffffffffffffffffffffffffffffff16815260200190815260200160002060030160009054906101000a900460ff1615610f8f576000905061104d565b6000600360008673ffffffffffffffffffffffffffffffffffffffff1673ffffffffffffffffffffffffffffffffffffffff1681526020019081526020016000209050848160000160006101000a81548173ffffffffffffffffffffffffffffffffffffffff021916908373ffffffffffffffffffffffffffffffffffffffff1602179055508381600101908051906020019061102d9291906118eb565b50828160020190805190602001906110469291906118eb565b5060019150505b9392505050565b6000600260008573ffffffffffffffffffffffffffffffffffffffff1673ffffffffffffffffffffffffffffffffffffffff16815260200190815260200160002060030160009054906101000a900460ff16156110b4576000905061118f565b6000600260008673ffffffffffffffffffffffffffffffffffffffff1673ffffffffffffffffffffffffffffffffffffffff1681526020019081526020016000209050848160000160006101000a81548173ffffffffffffffffffffffffffffffffffffffff021916908373ffffffffffffffffffffffffffffffffffffffff160217905550838160010190805190602001906111529291906118eb565b508281600201908051906020019061116b9291906118eb565b5060018160030160006101000a81548160ff02191690831515021790555060019150505b9392505050565b60006060806001846040516111ab9190611dcd565b908152602001604051809103902060070160019054906101000a900473ffffffffffffffffffffffffffffffffffffffff16600260006001876040516111f19190611dcd565b908152602001604051809103902060070160019054906101000a900473ffffffffffffffffffffffffffffffffffffffff1673ffffffffffffffffffffffffffffffffffffffff1673ffffffffffffffffffffffffffffffffffffffff168152602001908152602001600020600101600260006001886040516112749190611dcd565b908152602001604051809103902060070160019054906101000a900473ffffffffffffffffffffffffffffffffffffffff1673ffffffffffffffffffffffffffffffffffffffff1673ffffffffffffffffffffffffffffffffffffffff1681526020019081526020016000206002018180546112ef906120a7565b80601f016020809104026020016040519081016040528092919081815260200182805461131b906120a7565b80156113685780601f1061133d57610100808354040283529160200191611368565b820191906000526020600020905b81548152906001019060200180831161134b57829003601f168201915b5050505050915080805461137b906120a7565b80601f01602080910402602001604051908101604052809291908181526020018280546113a7906120a7565b80156113f45780601f106113c9576101008083540402835291602001916113f4565b820191906000526020600020905b8154815290600101906020018083116113d757829003601f168201915b505050505090509250925092509193909250565b60006060806060806060806001886040516114239190611dcd565b9081526020016040518091039020600001546001896040516114459190611dcd565b908152602001604051809103902060010160018a6040516114669190611dcd565b908152602001604051809103902060020160018b6040516114879190611dcd565b908152602001604051809103902060030160018c6040516114a89190611dcd565b908152602001604051809103902060040160018d6040516114c99190611dcd565b908152602001604051809103902060050160018e6040516114ea9190611dcd565b9081526020016040518091039020600601858054611507906120a7565b80601f0160208091040260200160405190810160405280929190818152602001828054611533906120a7565b80156115805780601f1061155557610100808354040283529160200191611580565b820191906000526020600020905b81548152906001019060200180831161156357829003601f168201915b50505050509550848054611593906120a7565b80601f01602080910402602001604051908101604052809291908181526020018280546115bf906120a7565b801561160c5780601f106115e15761010080835404028352916020019161160c565b820191906000526020600020905b8154815290600101906020018083116115ef57829003601f168201915b5050505050945083805461161f906120a7565b80601f016020809104026020016040519081016040528092919081815260200182805461164b906120a7565b80156116985780601f1061166d57610100808354040283529160200191611698565b820191906000526020600020905b81548152906001019060200180831161167b57829003601f168201915b505050505093508280546116ab906120a7565b80601f01602080910402602001604051908101604052809291908181526020018280546116d7906120a7565b80156117245780601f106116f957610100808354040283529160200191611724565b820191906000526020600020905b81548152906001019060200180831161170757829003601f168201915b50505050509250818054611737906120a7565b80601f0160208091040260200160405190810160405280929190818152602001828054611763906120a7565b80156117b05780601f10611785576101008083540402835291602001916117b0565b820191906000526020600020905b81548152906001019060200180831161179357829003601f168201915b505050505091508080546117c3906120a7565b80601f01602080910402602001604051908101604052809291908181526020018280546117ef906120a7565b801561183c5780601f106118115761010080835404028352916020019161183c565b820191906000526020600020905b81548152906001019060200180831161181f57829003601f168201915b505050505090509650965096509650965096509650919395979092949650565b60008015156001836040516118719190611dcd565b908152602001604051809103902060070160009054906101000a900460ff16151514156118a157600090506118a6565b600190505b919050565b5080546118b7906120a7565b6000825580601f106118c957506118e8565b601f0160209004906000526020600020908101906118e79190611971565b5b50565b8280546118f7906120a7565b90600052602060002090601f0160209004810192826119195760008555611960565b82601f1061193257805160ff1916838001178555611960565b82800160010185558215611960579182015b8281111561195f578251825591602001919060010190611944565b5b50905061196d9190611971565b5090565b5b8082111561198a576000816000905550600101611972565b5090565b60006119a161199c84611fb0565b611f8b565b9050828152602081018484840111156119b957600080fd5b6119c4848285612065565b509392505050565b6000813590506119db81612179565b92915050565b600082601f8301126119f257600080fd5b8135611a0284826020860161198e565b91505092915050565b600081359050611a1a81612190565b92915050565b600060208284031215611a3257600080fd5b6000611a40848285016119cc565b91505092915050565b600080600060608486031215611a5e57600080fd5b6000611a6c868287016119cc565b935050602084013567ffffffffffffffff811115611a8957600080fd5b611a95868287016119e1565b925050604084013567ffffffffffffffff811115611ab257600080fd5b611abe868287016119e1565b9150509250925092565b600060208284031215611ada57600080fd5b600082013567ffffffffffffffff811115611af457600080fd5b611b00848285016119e1565b91505092915050565b60008060408385031215611b1c57600080fd5b600083013567ffffffffffffffff811115611b3657600080fd5b611b42858286016119e1565b9250506020611b53858286016119cc565b9150509250929050565b600080600080600080600080610100898b031215611b7a57600080fd5b600089013567ffffffffffffffff811115611b9457600080fd5b611ba08b828c016119e1565b9850506020611bb18b828c01611a0b565b975050604089013567ffffffffffffffff811115611bce57600080fd5b611bda8b828c016119e1565b965050606089013567ffffffffffffffff811115611bf757600080fd5b611c038b828c016119e1565b955050608089013567ffffffffffffffff811115611c2057600080fd5b611c2c8b828c016119e1565b94505060a089013567ffffffffffffffff811115611c4957600080fd5b611c558b828c016119e1565b93505060c089013567ffffffffffffffff811115611c7257600080fd5b611c7e8b828c016119e1565b92505060e089013567ffffffffffffffff811115611c9b57600080fd5b611ca78b828c016119e1565b9150509295985092959890939650565b611cc08161201d565b82525050565b611ccf8161202f565b82525050565b6000611ce082611ff6565b611cea8185612001565b9350611cfa818560208601612074565b611d0381612168565b840191505092915050565b6000611d1982611ff6565b611d238185612012565b9350611d33818560208601612074565b80840191505092915050565b60008154611d4c816120a7565b611d568186612012565b94506001821660008114611d715760018114611d8257611db5565b60ff19831686528186019350611db5565b611d8b85611fe1565b60005b83811015611dad57815481890152600182019150602081019050611d8e565b838801955050505b50505092915050565b611dc78161205b565b82525050565b6000611dd98284611d0e565b915081905092915050565b6000611df08284611d3f565b915081905092915050565b6000606082019050611e106000830186611cb7565b8181036020830152611e228185611cd5565b90508181036040830152611e368184611cd5565b9050949350505050565b6000602082019050611e556000830184611cc6565b92915050565b60006040820190508181036000830152611e758185611cd5565b90508181036020830152611e898184611cd5565b90509392505050565b60006060820190508181036000830152611eac8186611cd5565b90508181036020830152611ec08185611cd5565b9050611ecf6040830184611cb7565b949350505050565b6000602082019050611eec6000830184611dbe565b92915050565b600060e082019050611f07600083018a611dbe565b8181036020830152611f198189611cd5565b90508181036040830152611f2d8188611cd5565b90508181036060830152611f418187611cd5565b90508181036080830152611f558186611cd5565b905081810360a0830152611f698185611cd5565b905081810360c0830152611f7d8184611cd5565b905098975050505050505050565b6000611f95611fa6565b9050611fa182826120d9565b919050565b6000604051905090565b600067ffffffffffffffff821115611fcb57611fca612139565b5b611fd482612168565b9050602081019050919050565b60008190508160005260206000209050919050565b600081519050919050565b600082825260208201905092915050565b600081905092915050565b60006120288261203b565b9050919050565b60008115159050919050565b600073ffffffffffffffffffffffffffffffffffffffff82169050919050565b6000819050919050565b82818337600083830152505050565b60005b83811015612092578082015181840152602081019050612077565b838111156120a1576000848401525b50505050565b600060028204905060018216806120bf57607f821691505b602082108114156120d3576120d261210a565b5b50919050565b6120e282612168565b810181811067ffffffffffffffff8211171561210157612100612139565b5b80604052505050565b7f4e487b7100000000000000000000000000000000000000000000000000000000600052602260045260246000fd5b7f4e487b7100000000000000000000000000000000000000000000000000000000600052604160045260246000fd5b6000601f19601f8301169050919050565b6121828161201d565b811461218d57600080fd5b50565b6121998161205b565b81146121a457600080fd5b5056fea2646970667358221220fb7e6dbf067ab8e78bdba97f61fce27b40eae218a040f5379e7b64f8b41df93964736f6c63430008040033",
  "linkReferences": {},
  "deployedLinkReferences": {}
}